{
  "_format": "hh-sol-artifact-1",
  "contractName": "PoolManager",
  "sourceName": "solidity/PoolManager.sol",
  "abi": [
    {
      "inputs": [],
      "stateMutability": "nonpayable",
      "type": "constructor"
    },
    {
      "inputs": [],
      "name": "EnforcedPause",
      "type": "error"
    },
    {
      "inputs": [],
      "name": "ExpectedPause",
      "type": "error"
    },
    {
      "inputs": [
        {
          "internalType": "address",
          "name": "owner",
          "type": "address"
        }
      ],
      "name": "OwnableInvalidOwner",
      "type": "error"
    },
    {
      "inputs": [
        {
          "internalType": "address",
          "name": "account",
          "type": "address"
        }
      ],
      "name": "OwnableUnauthorizedAccount",
      "type": "error"
    },
    {
      "inputs": [],
      "name": "ReentrancyGuardReentrantCall",
      "type": "error"
    },
    {
      "anonymous": false,
      "inputs": [
        {
          "indexed": true,
          "internalType": "address",
          "name": "user",
          "type": "address"
        },
        {
          "indexed": true,
          "internalType": "uint256",
          "name": "poolId",
          "type": "uint256"
        },
        {
          "indexed": false,
          "internalType": "uint256",
          "name": "amount",
          "type": "uint256"
        }
      ],
      "name": "Deposited",
      "type": "event"
    },
    {
      "anonymous": false,
      "inputs": [
        {
          "indexed": true,
          "internalType": "address",
          "name": "previousOwner",
          "type": "address"
        },
        {
          "indexed": true,
          "internalType": "address",
          "name": "newOwner",
          "type": "address"
        }
      ],
      "name": "OwnershipTransferred",
      "type": "event"
    },
    {
      "anonymous": false,
      "inputs": [
        {
          "indexed": false,
          "internalType": "address",
          "name": "account",
          "type": "address"
        }
      ],
      "name": "Paused",
      "type": "event"
    },
    {
      "anonymous": false,
      "inputs": [
        {
          "indexed": true,
          "internalType": "uint256",
          "name": "poolId",
          "type": "uint256"
        },
        {
          "indexed": false,
          "internalType": "string",
          "name": "name",
          "type": "string"
        },
        {
          "indexed": false,
          "internalType": "uint256",
          "name": "apy",
          "type": "uint256"
        }
      ],
      "name": "PoolCreated",
      "type": "event"
    },
    {
      "anonymous": false,
      "inputs": [
        {
          "indexed": true,
          "internalType": "uint256",
          "name": "poolId",
          "type": "uint256"
        },
        {
          "indexed": false,
          "internalType": "bool",
          "name": "isActive",
          "type": "bool"
        },
        {
          "indexed": false,
          "internalType": "uint256",
          "name": "apy",
          "type": "uint256"
        }
      ],
      "name": "PoolUpdated",
      "type": "event"
    },
    {
      "anonymous": false,
      "inputs": [
        {
          "indexed": false,
          "internalType": "uint256",
          "name": "oldBps",
          "type": "uint256"
        },
        {
          "indexed": false,
          "internalType": "uint256",
          "name": "newBps",
          "type": "uint256"
        }
      ],
      "name": "ReferralBonusUpdated",
      "type": "event"
    },
    {
      "anonymous": false,
      "inputs": [
        {
          "indexed": true,
          "internalType": "address",
          "name": "referred",
          "type": "address"
        },
        {
          "indexed": true,
          "internalType": "address",
          "name": "referrer",
          "type": "address"
        }
      ],
      "name": "ReferralRegistered",
      "type": "event"
    },
    {
      "anonymous": false,
      "inputs": [
        {
          "indexed": true,
          "internalType": "address",
          "name": "referrer",
          "type": "address"
        },
        {
          "indexed": true,
          "internalType": "address",
          "name": "referred",
          "type": "address"
        },
        {
          "indexed": false,
          "internalType": "uint256",
          "name": "reward",
          "type": "uint256"
        }
      ],
      "name": "ReferralRewarded",
      "type": "event"
    },
    {
      "anonymous": false,
      "inputs": [
        {
          "indexed": true,
          "internalType": "address",
          "name": "user",
          "type": "address"
        },
        {
          "indexed": true,
          "internalType": "uint256",
          "name": "poolId",
          "type": "uint256"
        },
        {
          "indexed": false,
          "internalType": "uint256",
          "name": "reward",
          "type": "uint256"
        }
      ],
      "name": "RewardsClaimed",
      "type": "event"
    },
    {
      "anonymous": false,
      "inputs": [
        {
          "indexed": false,
          "internalType": "address",
          "name": "account",
          "type": "address"
        }
      ],
      "name": "Unpaused",
      "type": "event"
    },
    {
      "anonymous": false,
      "inputs": [
        {
          "indexed": true,
          "internalType": "address",
          "name": "user",
          "type": "address"
        },
        {
          "indexed": true,
          "internalType": "uint256",
          "name": "poolId",
          "type": "uint256"
        },
        {
          "indexed": false,
          "internalType": "uint256",
          "name": "amount",
          "type": "uint256"
        }
      ],
      "name": "Withdrawn",
      "type": "event"
    },
    {
      "inputs": [],
      "name": "MAX_BPS",
      "outputs": [
        {
          "internalType": "uint256",
          "name": "",
          "type": "uint256"
        }
      ],
      "stateMutability": "view",
      "type": "function"
    },
    {
      "inputs": [
        {
          "internalType": "uint256",
          "name": "_poolId",
          "type": "uint256"
        }
      ],
      "name": "claimRewards",
      "outputs": [],
      "stateMutability": "nonpayable",
      "type": "function"
    },
    {
      "inputs": [
        {
          "internalType": "string",
          "name": "_name",
          "type": "string"
        },
        {
          "internalType": "uint256",
          "name": "_minDeposit",
          "type": "uint256"
        },
        {
          "internalType": "uint256",
          "name": "_maxDeposit",
          "type": "uint256"
        },
        {
          "internalType": "uint256",
          "name": "_apy",
          "type": "uint256"
        }
      ],
      "name": "createPool",
      "outputs": [],
      "stateMutability": "nonpayable",
      "type": "function"
    },
    {
      "inputs": [
        {
          "internalType": "uint256",
          "name": "_poolId",
          "type": "uint256"
        }
      ],
      "name": "deposit",
      "outputs": [],
      "stateMutability": "payable",
      "type": "function"
    },
    {
      "inputs": [],
      "name": "emergencyWithdraw",
      "outputs": [],
      "stateMutability": "nonpayable",
      "type": "function"
    },
    {
      "inputs": [],
      "name": "fundRewards",
      "outputs": [],
      "stateMutability": "payable",
      "type": "function"
    },
    {
      "inputs": [
        {
          "internalType": "uint256",
          "name": "_poolId",
          "type": "uint256"
        }
      ],
      "name": "getPoolInfo",
      "outputs": [
        {
          "internalType": "uint256",
          "name": "_totalStaked",
          "type": "uint256"
        },
        {
          "internalType": "uint256",
          "name": "_memberCount",
          "type": "uint256"
        },
        {
          "internalType": "uint256",
          "name": "_apy",
          "type": "uint256"
        },
        {
          "internalType": "bool",
          "name": "_isActive",
          "type": "bool"
        }
      ],
      "stateMutability": "view",
      "type": "function"
    },
    {
      "inputs": [
        {
          "internalType": "address",
          "name": "_user",
          "type": "address"
        }
      ],
      "name": "getReferralInfo",
      "outputs": [
        {
          "internalType": "address",
          "name": "referrer",
          "type": "address"
        },
        {
          "internalType": "uint256",
          "name": "totalReward",
          "type": "uint256"
        },
        {
          "internalType": "bool",
          "name": "isRegistered",
          "type": "bool"
        },
        {
          "internalType": "uint256",
          "name": "referredCount",
          "type": "uint256"
        }
      ],
      "stateMutability": "view",
      "type": "function"
    },
    {
      "inputs": [
        {
          "internalType": "address",
          "name": "_referrer",
          "type": "address"
        }
      ],
      "name": "getReferredUsers",
      "outputs": [
        {
          "internalType": "address[]",
          "name": "",
          "type": "address[]"
        }
      ],
      "stateMutability": "view",
      "type": "function"
    },
    {
      "inputs": [
        {
          "internalType": "address",
          "name": "_user",
          "type": "address"
        },
        {
          "internalType": "uint256",
          "name": "_poolId",
          "type": "uint256"
        }
      ],
      "name": "getUserStake",
      "outputs": [
        {
          "internalType": "uint256",
          "name": "",
          "type": "uint256"
        }
      ],
      "stateMutability": "view",
      "type": "function"
    },
    {
      "inputs": [
        {
          "internalType": "address",
          "name": "_user",
          "type": "address"
        },
        {
          "internalType": "uint256",
          "name": "_poolId",
          "type": "uint256"
        }
      ],
      "name": "getUserStakeInfo",
      "outputs": [
        {
          "internalType": "uint256",
          "name": "amount",
          "type": "uint256"
        },
        {
          "internalType": "uint256",
          "name": "depositTime",
          "type": "uint256"
        },
        {
          "internalType": "uint256",
          "name": "claimedRewards",
          "type": "uint256"
        },
        {
          "internalType": "uint256",
          "name": "pending",
          "type": "uint256"
        }
      ],
      "stateMutability": "view",
      "type": "function"
    },
    {
      "inputs": [],
      "name": "owner",
      "outputs": [
        {
          "internalType": "address",
          "name": "",
          "type": "address"
        }
      ],
      "stateMutability": "view",
      "type": "function"
    },
    {
      "inputs": [],
      "name": "pause",
      "outputs": [],
      "stateMutability": "nonpayable",
      "type": "function"
    },
    {
      "inputs": [],
      "name": "paused",
      "outputs": [
        {
          "internalType": "bool",
          "name": "",
          "type": "bool"
        }
      ],
      "stateMutability": "view",
      "type": "function"
    },
    {
      "inputs": [
        {
          "internalType": "uint256",
          "name": "_poolId",
          "type": "uint256"
        },
        {
          "internalType": "address",
          "name": "_user",
          "type": "address"
        }
      ],
      "name": "pendingRewards",
      "outputs": [
        {
          "internalType": "uint256",
          "name": "",
          "type": "uint256"
        }
      ],
      "stateMutability": "view",
      "type": "function"
    },
    {
      "inputs": [],
      "name": "poolCount",
      "outputs": [
        {
          "internalType": "uint256",
          "name": "",
          "type": "uint256"
        }
      ],
      "stateMutability": "view",
      "type": "function"
    },
    {
      "inputs": [
        {
          "internalType": "uint256",
          "name": "",
          "type": "uint256"
        }
      ],
      "name": "pools",
      "outputs": [
        {
          "internalType": "string",
          "name": "name",
          "type": "string"
        },
        {
          "internalType": "uint256",
          "name": "minDeposit",
          "type": "uint256"
        },
        {
          "internalType": "uint256",
          "name": "maxDeposit",
          "type": "uint256"
        },
        {
          "internalType": "uint256",
          "name": "apy",
          "type": "uint256"
        },
        {
          "internalType": "uint256",
          "name": "totalStaked",
          "type": "uint256"
        },
        {
          "internalType": "uint256",
          "name": "memberCount",
          "type": "uint256"
        },
        {
          "internalType": "bool",
          "name": "isActive",
          "type": "bool"
        },
        {
          "internalType": "uint256",
          "name": "createdAt",
          "type": "uint256"
        }
      ],
      "stateMutability": "view",
      "type": "function"
    },
    {
      "inputs": [],
      "name": "referralBonusBps",
      "outputs": [
        {
          "internalType": "uint256",
          "name": "",
          "type": "uint256"
        }
      ],
      "stateMutability": "view",
      "type": "function"
    },
    {
      "inputs": [
        {
          "internalType": "address",
          "name": "",
          "type": "address"
        }
      ],
      "name": "referrals",
      "outputs": [
        {
          "internalType": "address",
          "name": "referrer",
          "type": "address"
        },
        {
          "internalType": "uint256",
          "name": "totalReward",
          "type": "uint256"
        },
        {
          "internalType": "bool",
          "name": "isRegistered",
          "type": "bool"
        }
      ],
      "stateMutability": "view",
      "type": "function"
    },
    {
      "inputs": [
        {
          "internalType": "address",
          "name": "",
          "type": "address"
        },
        {
          "internalType": "uint256",
          "name": "",
          "type": "uint256"
        }
      ],
      "name": "referredUsers",
      "outputs": [
        {
          "internalType": "address",
          "name": "",
          "type": "address"
        }
      ],
      "stateMutability": "view",
      "type": "function"
    },
    {
      "inputs": [
        {
          "internalType": "address",
          "name": "_referrer",
          "type": "address"
        }
      ],
      "name": "registerReferral",
      "outputs": [],
      "stateMutability": "nonpayable",
      "type": "function"
    },
    {
      "inputs": [],
      "name": "renounceOwnership",
      "outputs": [],
      "stateMutability": "nonpayable",
      "type": "function"
    },
    {
      "inputs": [
        {
          "internalType": "uint256",
          "name": "_bps",
          "type": "uint256"
        }
      ],
      "name": "setReferralBonus",
      "outputs": [],
      "stateMutability": "nonpayable",
      "type": "function"
    },
    {
      "inputs": [],
      "name": "totalValueLocked",
      "outputs": [
        {
          "internalType": "uint256",
          "name": "",
          "type": "uint256"
        }
      ],
      "stateMutability": "view",
      "type": "function"
    },
    {
      "inputs": [
        {
          "internalType": "address",
          "name": "newOwner",
          "type": "address"
        }
      ],
      "name": "transferOwnership",
      "outputs": [],
      "stateMutability": "nonpayable",
      "type": "function"
    },
    {
      "inputs": [],
      "name": "unpause",
      "outputs": [],
      "stateMutability": "nonpayable",
      "type": "function"
    },
    {
      "inputs": [
        {
          "internalType": "uint256",
          "name": "_poolId",
          "type": "uint256"
        },
        {
          "internalType": "bool",
          "name": "_isActive",
          "type": "bool"
        },
        {
          "internalType": "uint256",
          "name": "_apy",
          "type": "uint256"
        }
      ],
      "name": "updatePool",
      "outputs": [],
      "stateMutability": "nonpayable",
      "type": "function"
    },
    {
      "inputs": [
        {
          "internalType": "uint256",
          "name": "",
          "type": "uint256"
        },
        {
          "internalType": "address",
          "name": "",
          "type": "address"
        }
      ],
      "name": "userStakes",
      "outputs": [
        {
          "internalType": "uint256",
          "name": "amount",
          "type": "uint256"
        },
        {
          "internalType": "uint256",
          "name": "depositTime",
          "type": "uint256"
        },
        {
          "internalType": "uint256",
          "name": "claimedRewards",
          "type": "uint256"
        },
        {
          "internalType": "bool",
          "name": "exists",
          "type": "bool"
        }
      ],
      "stateMutability": "view",
      "type": "function"
    },
    {
      "inputs": [
        {
          "internalType": "uint256",
          "name": "_poolId",
          "type": "uint256"
        },
        {
          "internalType": "uint256",
          "name": "_amount",
          "type": "uint256"
        }
      ],
      "name": "withdraw",
      "outputs": [],
      "stateMutability": "nonpayable",
      "type": "function"
    },
    {
      "stateMutability": "payable",
      "type": "receive"
    }
  ],
  "bytecode": "0x60806040526101f460025534801561001657600080fd5b50338061003d57604051631e4fbdf760e01b81526000600482015260240160405180910390fd5b61004681610070565b5060017f9b779b17422d0df92223018b32b4d1fa46e071723d6817e2486d003becc55f00556100c0565b600080546001600160a01b038381166001600160a01b0319831681178455604051919092169283917f8be0079c531659141344cd1fd0a4f28419497f9722a3daafe3b4186f6b6457e09190a35050565b611e8c806100cf6000396000f3fe6080604052600436106101c55760003560e01c80639ca423b3116100f7578063db2e21bc11610095578063f2fde38b11610064578063f2fde38b14610623578063f525cb6814610643578063fd967f4714610659578063ff18bf0b1461066f57600080fd5b8063db2e21bc14610588578063e89905241461059d578063e92820e6146105ed578063ec18154e1461060d57600080fd5b8063b1d24443116100d1578063b1d2444314610515578063b6b55f2514610535578063cec695fa14610548578063d18df53c1461056857600080fd5b80639ca423b314610451578063a208298b146104c1578063ac4afa38146104e157600080fd5b80633f4ba83a11610164578063715018a61161013e578063715018a6146103d55780638456cb59146103ea5780638da5cb5b146103ff5780639a037aa01461043157600080fd5b80633f4ba83a14610376578063441a3e701461038b5780635c975abb146103ab57600080fd5b8063209ab711116101a0578063209ab7111461025c57806321874ae21461027c5780632f380b351461030757806332e5b6d81461034957600080fd5b8062ae5faa146101d15780630962ef7914610216578063195ad3d51461023857600080fd5b366101cc57005b600080fd5b3480156101dd57600080fd5b506101f16101ec36600461198a565b610677565b6040805194855260208501939093529183015260608201526080015b60405180910390f35b34801561022257600080fd5b506102366102313660046119b4565b6106cb565b005b34801561024457600080fd5b5061024e60025481565b60405190815260200161020d565b34801561026857600080fd5b506102366102773660046119cd565b6108b4565b34801561028857600080fd5b506102d76102973660046119cd565b6001600160a01b0390811660009081526006602090815260408083208054600182015460029092015460079094529190932054931693919260ff90911691565b604080516001600160a01b039095168552602085019390935290151591830191909152606082015260800161020d565b34801561031357600080fd5b506103276103223660046119b4565b610a64565b604080519485526020850193909352918301521515606082015260800161020d565b34801561035557600080fd5b506103696103643660046119cd565b610abf565b60405161020d91906119ef565b34801561038257600080fd5b50610236610b35565b34801561039757600080fd5b506102366103a6366004611a3c565b610b47565b3480156103b757600080fd5b50600054600160a01b900460ff16604051901515815260200161020d565b3480156103e157600080fd5b50610236610da6565b3480156103f657600080fd5b50610236610db8565b34801561040b57600080fd5b506000546001600160a01b03165b6040516001600160a01b03909116815260200161020d565b34801561043d57600080fd5b5061023661044c3660046119b4565b610dc8565b34801561045d57600080fd5b5061049a61046c3660046119cd565b6006602052600090815260409020805460018201546002909201546001600160a01b03909116919060ff1683565b604080516001600160a01b039094168452602084019290925215159082015260600161020d565b3480156104cd57600080fd5b506102366104dc366004611a5e565b610e67565b3480156104ed57600080fd5b506105016104fc3660046119b4565b61103b565b60405161020d989796959493929190611ae6565b34801561052157600080fd5b50610236610530366004611b78565b61110b565b6102366105433660046119b4565b6111e6565b34801561055457600080fd5b5061024e61056336600461198a565b611436565b34801561057457600080fd5b5061024e610583366004611bb5565b611460565b34801561059457600080fd5b50610236611507565b3480156105a957600080fd5b506103276105b8366004611bb5565b600560209081526000928352604080842090915290825290208054600182015460028301546003909301549192909160ff1684565b3480156105f957600080fd5b5061041961060836600461198a565b6115df565b34801561061957600080fd5b5061024e60035481565b34801561062f57600080fd5b5061023661063e3660046119cd565b611617565b34801561064f57600080fd5b5061024e60015481565b34801561066557600080fd5b5061024e61271081565b610236611652565b60008181526005602090815260408083206001600160a01b0386168452909152812080546001820154600283015484938493849391929091906106ba898b611460565b929a91995097509095509350505050565b6106d361169a565b6106db6116b6565b60006106e78233611460565b9050600081116107345760405162461bcd60e51b81526020600482015260136024820152724e6f207265776172647320746f20636c61696d60681b60448201526064015b60405180910390fd5b804710156107965760405162461bcd60e51b815260206004820152602960248201527f496e73756666696369656e7420636f6e74726163742062616c616e636520666f60448201526872207265776172647360b81b606482015260840161072b565b60008281526005602090815260408083203384529091528120600281018054919284926107c4908490611bf7565b9091555050426001820155604051600090339084908381818185875af1925050503d8060008114610811576040519150601f19603f3d011682016040523d82523d6000602084013e610816565b606091505b50509050806108605760405162461bcd60e51b815260206004820152601660248201527514995dd85c99081d1c985b9cd9995c8819985a5b195960521b604482015260640161072b565b604051838152849033907fdacbdde355ba930696a362ea6738feb9f8bd52dfb3d81947558fd3217e23e3259060200160405180910390a35050506108b16001600080516020611e3783398151915255565b50565b6001600160a01b0381166108fd5760405162461bcd60e51b815260206004820152601060248201526f24b73b30b634b2103932b332b93932b960811b604482015260640161072b565b336001600160a01b0382160361094d5760405162461bcd60e51b815260206004820152601560248201527421b0b73737ba103932b332b9103cb7bab939b2b63360591b604482015260640161072b565b3360009081526006602052604090206002015460ff16156109b05760405162461bcd60e51b815260206004820152601b60248201527f526566657272616c20616c726561647920726567697374657265640000000000604482015260640161072b565b604080516060810182526001600160a01b0380841680835260006020808501828152600186880181815233808652600685528986209851895498166001600160a01b0319988916178955925188830155516002909701805497151560ff1990981697909717909655838352600782528683208054968701815583529082209094018054909316841790925592517f5f1ca2fcc108b751843a763e60d2201f593516109d7dbb1b700468f2d4190bb79190a350565b6000806000806001548510610a8b5760405162461bcd60e51b815260040161072b90611c0a565b5050506000918252506004602081905260409091209081015460058201546003830154600690930154919390929160ff1690565b6001600160a01b038116600090815260076020908152604091829020805483518184028101840190945280845260609392830182828015610b2957602002820191906000526020600020905b81546001600160a01b03168152600190910190602001808311610b0b575b50505050509050919050565b610b3d6116e1565b610b4561170e565b565b610b4f61169a565b610b576116b6565b6001548210610b785760405162461bcd60e51b815260040161072b90611c0a565b60008281526005602090815260408083203384529091529020600381015460ff16610bd65760405162461bcd60e51b815260206004820152600e60248201526d139bc81cdd185ad948199bdd5b9960921b604482015260640161072b565b8054821115610c275760405162461bcd60e51b815260206004820152601b60248201527f496e73756666696369656e74207374616b65642062616c616e63650000000000604482015260640161072b565b60008211610c6c5760405162461bcd60e51b81526020600482015260126024820152710416d6f756e74206d757374206265203e20360741b604482015260640161072b565b81816000016000828254610c809190611c37565b909155505060008381526004602081905260408220018054849290610ca6908490611c37565b925050819055508160036000828254610cbf9190611c37565b9091555050604051600090339084908381818185875af1925050503d8060008114610d06576040519150601f19603f3d011682016040523d82523d6000602084013e610d0b565b606091505b5050905080610d525760405162461bcd60e51b8152602060048201526013602482015272109390881d1c985b9cd9995c8819985a5b1959606a1b604482015260640161072b565b604051838152849033907f92ccf450a286a957af52509bc1c9939d1a6a481783e142e41e2499f0bb66ebc69060200160405180910390a35050610da26001600080516020611e3783398151915255565b5050565b610dae6116e1565b610b456000611763565b610dc06116e1565b610b456117b3565b610dd06116e1565b6107d0811115610e225760405162461bcd60e51b815260206004820152601760248201527f526566657272616c20626f6e757320746f6f2068696768000000000000000000604482015260640161072b565b600280549082905560408051828152602081018490527f90075deb74564b91eb6f5bd9277209569cfeddf2e3e9ba827e39a9eaff30ee91910160405180910390a15050565b610e6f6116e1565b83610eb15760405162461bcd60e51b8152602060048201526012602482015271141bdbdb081b985b59481c995c5d5a5c995960721b604482015260640161072b565b612710811115610ef95760405162461bcd60e51b81526020600482015260136024820152724150592065786365656473206d6178696d756d60681b604482015260640161072b565b600154604080516101206020601f89018190040282018101909252610100810187815290918291908990899081908501838280828437600092018290525093855250505060208083018890526040808401889052606084018790526080840183905260a08401839052600160c08501524260e090940193909352848252600490522081518190610f899082611ceb565b50602082015160018281019190915560408301516002830155606083015160038301556080830151600483015560a0830151600583015560c083015160068301805460ff191691151591909117905560e0909201516007909101558054906000610ff283611dab565b9190505550807f3040bbc5c012df6c85e9f1cc10202ceda09051bc16d18aa369bf9ada2ba7716f87878560405161102b93929190611dc4565b60405180910390a2505050505050565b60046020526000908152604090208054819061105690611c60565b80601f016020809104026020016040519081016040528092919081815260200182805461108290611c60565b80156110cf5780601f106110a4576101008083540402835291602001916110cf565b820191906000526020600020905b8154815290600101906020018083116110b257829003601f168201915b50505050600183015460028401546003850154600486015460058701546006880154600790980154969794969395509193909260ff9091169088565b6111136116e1565b60015483106111345760405162461bcd60e51b815260040161072b90611c0a565b61271081111561117c5760405162461bcd60e51b81526020600482015260136024820152724150592065786365656473206d6178696d756d60681b604482015260640161072b565b60008381526004602090815260409182902060068101805460ff19168615159081179091556003909101849055825190815290810183905284917f1ae3e410cf35f6b4cf194bf70854cc944d025b496b9e302625b95b35c1c3a86d910160405180910390a2505050565b6111ee61169a565b6111f66116b6565b60015481106112175760405162461bcd60e51b815260040161072b90611c0a565b6000818152600460205260409020600681015460ff1661126e5760405162461bcd60e51b8152602060048201526012602482015271506f6f6c206973206e6f742061637469766560701b604482015260640161072b565b80600101543410156112ba5760405162461bcd60e51b815260206004820152601560248201527410995b1bddc81b5a5b9a5b5d5b4819195c1bdcda5d605a1b604482015260640161072b565b60028101541561133c57600281015460008381526005602090815260408083203384529091529020546112ee903490611bf7565b111561133c5760405162461bcd60e51b815260206004820152601760248201527f45786365656473206d6178696d756d206465706f736974000000000000000000604482015260640161072b565b60008281526005602090815260408083203384529091529020600381015460ff166113885760038101805460ff1916600117905560058201805490600061138283611dab565b91905055505b3481600001600082825461139c9190611bf7565b90915550504260018201556004820180543491906000906113be908490611bf7565b9250508190555034600360008282546113d79190611bf7565b9091555050604051348152839033907f73a19dd210f1a7f902193214c0ee91dd35ee5b4d920cba8d519eca65a7b488ca9060200160405180910390a361141d33346117f6565b50506108b16001600080516020611e3783398151915255565b60008181526005602090815260408083206001600160a01b03861684529091529020545b92915050565b60008281526005602090815260408083206001600160a01b03851684529091528120600381015460ff16158061149557508054155b156114a457600091505061145a565b60008160010154426114b69190611c37565b905060006114ca6127106301e13380611dfd565b600087815260046020526040902060030154845484916114e991611dfd565b6114f39190611dfd565b6114fd9190611e14565b9695505050505050565b61150f6116e1565b478061154a5760405162461bcd60e51b815260206004820152600a6024820152694e6f2062616c616e636560b01b604482015260640161072b565b600080546040516001600160a01b039091169083908381818185875af1925050503d8060008114611597576040519150601f19603f3d011682016040523d82523d6000602084013e61159c565b606091505b5050905080610da25760405162461bcd60e51b815260206004820152600f60248201526e151c985b9cd9995c8819985a5b1959608a1b604482015260640161072b565b600760205281600052604060002081815481106115fb57600080fd5b6000918252602090912001546001600160a01b03169150829050565b61161f6116e1565b6001600160a01b03811661164957604051631e4fbdf760e01b81526000600482015260240161072b565b6108b181611763565b61165a6116e1565b60003411610b455760405162461bcd60e51b815260206004820152600d60248201526c26bab9ba1039b2b7321021272160991b604482015260640161072b565b6116a2611914565b6002600080516020611e3783398151915255565b600054600160a01b900460ff1615610b455760405163d93c066560e01b815260040160405180910390fd5b6000546001600160a01b03163314610b455760405163118cdaa760e01b815233600482015260240161072b565b611716611944565b6000805460ff60a01b191690557f5db9ee0a495bf2e6ff9c91a7834c1ba4fdd244a5e8aa4e537bd38aeae4b073aa335b6040516001600160a01b03909116815260200160405180910390a1565b600080546001600160a01b038381166001600160a01b0319831681178455604051919092169283917f8be0079c531659141344cd1fd0a4f28419497f9722a3daafe3b4186f6b6457e09190a35050565b6117bb6116b6565b6000805460ff60a01b1916600160a01b1790557f62e78cea01bee320cd4e420270b5ea74000d11b0c9f74754ebdbfc544b05a2586117463390565b6001600160a01b0382166000908152600660205260409020600281015460ff1661181f57505050565b6000612710600254846118329190611dfd565b61183c9190611e14565b905080158061184a57508047105b156118555750505050565b808260010160008282546118699190611bf7565b909155505081546040516000916001600160a01b03169083908381818185875af1925050503d80600081146118ba576040519150601f19603f3d011682016040523d82523d6000602084013e6118bf565b606091505b50509050801561190d5782546040518381526001600160a01b038781169216907fb2dee5f49e7a09a5d7c95cd4dd5dc6410eea65d4e14519d6d3a6e14c8cf0e0e99060200160405180910390a35b5050505050565b600080516020611e3783398151915254600203610b4557604051633ee5aeb560e01b815260040160405180910390fd5b600054600160a01b900460ff16610b4557604051638dfc202b60e01b815260040160405180910390fd5b80356001600160a01b038116811461198557600080fd5b919050565b6000806040838503121561199d57600080fd5b6119a68361196e565b946020939093013593505050565b6000602082840312156119c657600080fd5b5035919050565b6000602082840312156119df57600080fd5b6119e88261196e565b9392505050565b6020808252825182820181905260009190848201906040850190845b81811015611a305783516001600160a01b031683529284019291840191600101611a0b565b50909695505050505050565b60008060408385031215611a4f57600080fd5b50508035926020909101359150565b600080600080600060808688031215611a7657600080fd5b853567ffffffffffffffff80821115611a8e57600080fd5b818801915088601f830112611aa257600080fd5b813581811115611ab157600080fd5b896020828501011115611ac357600080fd5b60209283019a909950918801359760408101359750606001359550909350505050565b60006101008083528a518082850152600091505b80821015611b1c576020828d0101516101208386010152602082019150611afa565b6101209150600082828601015281601f19601f830116850101925050508860208301528760408301528660608301528560808301528460a0830152611b6560c083018515159052565b8260e08301529998505050505050505050565b600080600060608486031215611b8d57600080fd5b8335925060208401358015158114611ba457600080fd5b929592945050506040919091013590565b60008060408385031215611bc857600080fd5b82359150611bd86020840161196e565b90509250929050565b634e487b7160e01b600052601160045260246000fd5b8082018082111561145a5761145a611be1565b602080825260139082015272141bdbdb08191bd95cc81b9bdd08195e1a5cdd606a1b604082015260600190565b8181038181111561145a5761145a611be1565b634e487b7160e01b600052604160045260246000fd5b600181811c90821680611c7457607f821691505b602082108103611c9457634e487b7160e01b600052602260045260246000fd5b50919050565b601f821115611ce6576000816000526020600020601f850160051c81016020861015611cc35750805b601f850160051c820191505b81811015611ce257828155600101611ccf565b5050505b505050565b815167ffffffffffffffff811115611d0557611d05611c4a565b611d1981611d138454611c60565b84611c9a565b602080601f831160018114611d4e5760008415611d365750858301515b600019600386901b1c1916600185901b178555611ce2565b600085815260208120601f198616915b82811015611d7d57888601518255948401946001909101908401611d5e565b5085821015611d9b5787850151600019600388901b60f8161c191681555b5050505050600190811b01905550565b600060018201611dbd57611dbd611be1565b5060010190565b604081528260408201528284606083013760006060848301015260006060601f19601f8601168301019050826020830152949350505050565b808202811582820484141761145a5761145a611be1565b600082611e3157634e487b7160e01b600052601260045260246000fd5b50049056fe9b779b17422d0df92223018b32b4d1fa46e071723d6817e2486d003becc55f00a264697066735822122001a8ed654430d220360a160f03c47cf132b9f22786f043933af4ed0c0821b03d64736f6c63430008180033",
  "linkReferences": {},
  "deployedLinkReferences": {}
}