{"solidity/PoolManager.sol":{"PoolManager":{"abi":[{"inputs":[],"stateMutability":"nonpayable","type":"constructor"},{"inputs":[],"name":"EnforcedPause","type":"error"},{"inputs":[],"name":"ExpectedPause","type":"error"},{"inputs":[{"internalType":"address","name":"owner","type":"address"}],"name":"OwnableInvalidOwner","type":"error"},{"inputs":[{"internalType":"address","name":"account","type":"address"}],"name":"OwnableUnauthorizedAccount","type":"error"},{"inputs":[],"name":"ReentrancyGuardReentrantCall","type":"error"},{"anonymous":false,"inputs":[{"indexed":true,"internalType":"address","name":"user","type":"address"},{"indexed":true,"internalType":"uint256","name":"poolId","type":"uint256"},{"indexed":false,"internalType":"uint256","name":"amount","type":"uint256"}],"name":"Deposited","type":"event"},{"anonymous":false,"inputs":[{"indexed":true,"internalType":"address","name":"previousOwner","type":"address"},{"indexed":true,"internalType":"address","name":"newOwner","type":"address"}],"name":"OwnershipTransferred","type":"event"},{"anonymous":false,"inputs":[{"indexed":false,"internalType":"address","name":"account","type":"address"}],"name":"Paused","type":"event"},{"anonymous":false,"inputs":[{"indexed":true,"internalType":"uint256","name":"poolId","type":"uint256"},{"indexed":false,"internalType":"string","name":"name","type":"string"},{"indexed":false,"internalType":"uint256","name":"apy","type":"uint256"}],"name":"PoolCreated","type":"event"},{"anonymous":false,"inputs":[{"indexed":true,"internalType":"uint256","name":"poolId","type":"uint256"},{"indexed":false,"internalType":"bool","name":"isActive","type":"bool"},{"indexed":false,"internalType":"uint256","name":"apy","type":"uint256"}],"name":"PoolUpdated","type":"event"},{"anonymous":false,"inputs":[{"indexed":false,"internalType":"uint256","name":"oldBps","type":"uint256"},{"indexed":false,"internalType":"uint256","name":"newBps","type":"uint256"}],"name":"ReferralBonusUpdated","type":"event"},{"anonymous":false,"inputs":[{"indexed":true,"internalType":"address","name":"referred","type":"address"},{"indexed":true,"internalType":"address","name":"referrer","type":"address"}],"name":"ReferralRegistered","type":"event"},{"anonymous":false,"inputs":[{"indexed":true,"internalType":"address","name":"referrer","type":"address"},{"indexed":true,"internalType":"address","name":"referred","type":"address"},{"indexed":false,"internalType":"uint256","name":"reward","type":"uint256"}],"name":"ReferralRewarded","type":"event"},{"anonymous":false,"inputs":[{"indexed":true,"internalType":"address","name":"user","type":"address"},{"indexed":true,"internalType":"uint256","name":"poolId","type":"uint256"},{"indexed":false,"internalType":"uint256","name":"reward","type":"uint256"}],"name":"RewardsClaimed","type":"event"},{"anonymous":false,"inputs":[{"indexed":false,"internalType":"address","name":"account","type":"address"}],"name":"Unpaused","type":"event"},{"anonymous":false,"inputs":[{"indexed":true,"internalType":"address","name":"user","type":"address"},{"indexed":true,"internalType":"uint256","name":"poolId","type":"uint256"},{"indexed":false,"internalType":"uint256","name":"amount","type":"uint256"}],"name":"Withdrawn","type":"event"},{"inputs":[],"name":"MAX_BPS","outputs":[{"internalType":"uint256","name":"","type":"uint256"}],"stateMutability":"view","type":"function"},{"inputs":[{"internalType":"uint256","name":"_poolId","type":"uint256"}],"name":"claimRewards","outputs":[],"stateMutability":"nonpayable","type":"function"},{"inputs":[{"internalType":"string","name":"_name","type":"string"},{"internalType":"uint256","name":"_minDeposit","type":"uint256"},{"internalType":"uint256","name":"_maxDeposit","type":"uint256"},{"internalType":"uint256","name":"_apy","type":"uint256"}],"name":"createPool","outputs":[],"stateMutability":"nonpayable","type":"function"},{"inputs":[{"internalType":"uint256","name":"_poolId","type":"uint256"}],"name":"deposit","outputs":[],"stateMutability":"payable","type":"function"},{"inputs":[],"name":"emergencyWithdraw","outputs":[],"stateMutability":"nonpayable","type":"function"},{"inputs":[],"name":"fundRewards","outputs":[],"stateMutability":"payable","type":"function"},{"inputs":[{"internalType":"uint256","name":"_poolId","type":"uint256"}],"name":"getPoolInfo","outputs":[{"internalType":"uint256","name":"_totalStaked","type":"uint256"},{"internalType":"uint256","name":"_memberCount","type":"uint256"},{"internalType":"uint256","name":"_apy","type":"uint256"},{"internalType":"bool","name":"_isActive","type":"bool"}],"stateMutability":"view","type":"function"},{"inputs":[{"internalType":"address","name":"_user","type":"address"}],"name":"getReferralInfo","outputs":[{"internalType":"address","name":"referrer","type":"address"},{"internalType":"uint256","name":"totalReward","type":"uint256"},{"internalType":"bool","name":"isRegistered","type":"bool"},{"internalType":"uint256","name":"referredCount","type":"uint256"}],"stateMutability":"view","type":"function"},{"inputs":[{"internalType":"address","name":"_referrer","type":"address"}],"name":"getReferredUsers","outputs":[{"internalType":"address[]","name":"","type":"address[]"}],"stateMutability":"view","type":"function"},{"inputs":[{"internalType":"address","name":"_user","type":"address"},{"internalType":"uint256","name":"_poolId","type":"uint256"}],"name":"getUserStake","outputs":[{"internalType":"uint256","name":"","type":"uint256"}],"stateMutability":"view","type":"function"},{"inputs":[{"internalType":"address","name":"_user","type":"address"},{"internalType":"uint256","name":"_poolId","type":"uint256"}],"name":"getUserStakeInfo","outputs":[{"internalType":"uint256","name":"amount","type":"uint256"},{"internalType":"uint256","name":"depositTime","type":"uint256"},{"internalType":"uint256","name":"claimedRewards","type":"uint256"},{"internalType":"uint256","name":"pending","type":"uint256"}],"stateMutability":"view","type":"function"},{"inputs":[],"name":"owner","outputs":[{"internalType":"address","name":"","type":"address"}],"stateMutability":"view","type":"function"},{"inputs":[],"name":"pause","outputs":[],"stateMutability":"nonpayable","type":"function"},{"inputs":[],"name":"paused","outputs":[{"internalType":"bool","name":"","type":"bool"}],"stateMutability":"view","type":"function"},{"inputs":[{"internalType":"uint256","name":"_poolId","type":"uint256"},{"internalType":"address","name":"_user","type":"address"}],"name":"pendingRewards","outputs":[{"internalType":"uint256","name":"","type":"uint256"}],"stateMutability":"view","type":"function"},{"inputs":[],"name":"poolCount","outputs":[{"internalType":"uint256","name":"","type":"uint256"}],"stateMutability":"view","type":"function"},{"inputs":[{"internalType":"uint256","name":"","type":"uint256"}],"name":"pools","outputs":[{"internalType":"string","name":"name","type":"string"},{"internalType":"uint256","name":"minDeposit","type":"uint256"},{"internalType":"uint256","name":"maxDeposit","type":"uint256"},{"internalType":"uint256","name":"apy","type":"uint256"},{"internalType":"uint256","name":"totalStaked","type":"uint256"},{"internalType":"uint256","name":"memberCount","type":"uint256"},{"internalType":"bool","name":"isActive","type":"bool"},{"internalType":"uint256","name":"createdAt","type":"uint256"}],"stateMutability":"view","type":"function"},{"inputs":[],"name":"referralBonusBps","outputs":[{"internalType":"uint256","name":"","type":"uint256"}],"stateMutability":"view","type":"function"},{"inputs":[{"internalType":"address","name":"","type":"address"}],"name":"referrals","outputs":[{"internalType":"address","name":"referrer","type":"address"},{"internalType":"uint256","name":"totalReward","type":"uint256"},{"internalType":"bool","name":"isRegistered","type":"bool"}],"stateMutability":"view","type":"function"},{"inputs":[{"internalType":"address","name":"","type":"address"},{"internalType":"uint256","name":"","type":"uint256"}],"name":"referredUsers","outputs":[{"internalType":"address","name":"","type":"address"}],"stateMutability":"view","type":"function"},{"inputs":[{"internalType":"address","name":"_referrer","type":"address"}],"name":"registerReferral","outputs":[],"stateMutability":"nonpayable","type":"function"},{"inputs":[],"name":"renounceOwnership","outputs":[],"stateMutability":"nonpayable","type":"function"},{"inputs":[{"internalType":"uint256","name":"_bps","type":"uint256"}],"name":"setReferralBonus","outputs":[],"stateMutability":"nonpayable","type":"function"},{"inputs":[],"name":"totalValueLocked","outputs":[{"internalType":"uint256","name":"","type":"uint256"}],"stateMutability":"view","type":"function"},{"inputs":[{"internalType":"address","name":"newOwner","type":"address"}],"name":"transferOwnership","outputs":[],"stateMutability":"nonpayable","type":"function"},{"inputs":[],"name":"unpause","outputs":[],"stateMutability":"nonpayable","type":"function"},{"inputs":[{"internalType":"uint256","name":"_poolId","type":"uint256"},{"internalType":"bool","name":"_isActive","type":"bool"},{"internalType":"uint256","name":"_apy","type":"uint256"}],"name":"updatePool","outputs":[],"stateMutability":"nonpayable","type":"function"},{"inputs":[{"internalType":"uint256","name":"","type":"uint256"},{"internalType":"address","name":"","type":"address"}],"name":"userStakes","outputs":[{"internalType":"uint256","name":"amount","type":"uint256"},{"internalType":"uint256","name":"depositTime","type":"uint256"},{"internalType":"uint256","name":"claimedRewards","type":"uint256"},{"internalType":"bool","name":"exists","type":"bool"}],"stateMutability":"view","type":"function"},{"inputs":[{"internalType":"uint256","name":"_poolId","type":"uint256"},{"internalType":"uint256","name":"_amount","type":"uint256"}],"name":"withdraw","outputs":[],"stateMutability":"nonpayable","type":"function"},{"stateMutability":"payable","type":"receive"}],"evm":{"bytecode":{"linkReferences":{},"object":"60806040526101f460025534801561001657600080fd5b50338061003d57604051631e4fbdf760e01b81526000600482015260240160405180910390fd5b61004681610070565b5060017f9b779b17422d0df92223018b32b4d1fa46e071723d6817e2486d003becc55f00556100c0565b600080546001600160a01b038381166001600160a01b0319831681178455604051919092169283917f8be0079c531659141344cd1fd0a4f28419497f9722a3daafe3b4186f6b6457e09190a35050565b611e8c806100cf6000396000f3fe6080604052600436106101c55760003560e01c80639ca423b3116100f7578063db2e21bc11610095578063f2fde38b11610064578063f2fde38b14610623578063f525cb6814610643578063fd967f4714610659578063ff18bf0b1461066f57600080fd5b8063db2e21bc14610588578063e89905241461059d578063e92820e6146105ed578063ec18154e1461060d57600080fd5b8063b1d24443116100d1578063b1d2444314610515578063b6b55f2514610535578063cec695fa14610548578063d18df53c1461056857600080fd5b80639ca423b314610451578063a208298b146104c1578063ac4afa38146104e157600080fd5b80633f4ba83a11610164578063715018a61161013e578063715018a6146103d55780638456cb59146103ea5780638da5cb5b146103ff5780639a037aa01461043157600080fd5b80633f4ba83a14610376578063441a3e701461038b5780635c975abb146103ab57600080fd5b8063209ab711116101a0578063209ab7111461025c57806321874ae21461027c5780632f380b351461030757806332e5b6d81461034957600080fd5b8062ae5faa146101d15780630962ef7914610216578063195ad3d51461023857600080fd5b366101cc57005b600080fd5b3480156101dd57600080fd5b506101f16101ec36600461198a565b610677565b6040805194855260208501939093529183015260608201526080015b60405180910390f35b34801561022257600080fd5b506102366102313660046119b4565b6106cb565b005b34801561024457600080fd5b5061024e60025481565b60405190815260200161020d565b34801561026857600080fd5b506102366102773660046119cd565b6108b4565b34801561028857600080fd5b506102d76102973660046119cd565b6001600160a01b0390811660009081526006602090815260408083208054600182015460029092015460079094529190932054931693919260ff90911691565b604080516001600160a01b039095168552602085019390935290151591830191909152606082015260800161020d565b34801561031357600080fd5b506103276103223660046119b4565b610a64565b604080519485526020850193909352918301521515606082015260800161020d565b34801561035557600080fd5b506103696103643660046119cd565b610abf565b60405161020d91906119ef565b34801561038257600080fd5b50610236610b35565b34801561039757600080fd5b506102366103a6366004611a3c565b610b47565b3480156103b757600080fd5b50600054600160a01b900460ff16604051901515815260200161020d565b3480156103e157600080fd5b50610236610da6565b3480156103f657600080fd5b50610236610db8565b34801561040b57600080fd5b506000546001600160a01b03165b6040516001600160a01b03909116815260200161020d565b34801561043d57600080fd5b5061023661044c3660046119b4565b610dc8565b34801561045d57600080fd5b5061049a61046c3660046119cd565b6006602052600090815260409020805460018201546002909201546001600160a01b03909116919060ff1683565b604080516001600160a01b039094168452602084019290925215159082015260600161020d565b3480156104cd57600080fd5b506102366104dc366004611a5e565b610e67565b3480156104ed57600080fd5b506105016104fc3660046119b4565b61103b565b60405161020d989796959493929190611ae6565b34801561052157600080fd5b50610236610530366004611b78565b61110b565b6102366105433660046119b4565b6111e6565b34801561055457600080fd5b5061024e61056336600461198a565b611436565b34801561057457600080fd5b5061024e610583366004611bb5565b611460565b34801561059457600080fd5b50610236611507565b3480156105a957600080fd5b506103276105b8366004611bb5565b600560209081526000928352604080842090915290825290208054600182015460028301546003909301549192909160ff1684565b3480156105f957600080fd5b5061041961060836600461198a565b6115df565b34801561061957600080fd5b5061024e60035481565b34801561062f57600080fd5b5061023661063e3660046119cd565b611617565b34801561064f57600080fd5b5061024e60015481565b34801561066557600080fd5b5061024e61271081565b610236611652565b60008181526005602090815260408083206001600160a01b0386168452909152812080546001820154600283015484938493849391929091906106ba898b611460565b929a91995097509095509350505050565b6106d361169a565b6106db6116b6565b60006106e78233611460565b9050600081116107345760405162461bcd60e51b81526020600482015260136024820152724e6f207265776172647320746f20636c61696d60681b60448201526064015b60405180910390fd5b804710156107965760405162461bcd60e51b815260206004820152602960248201527f496e73756666696369656e7420636f6e74726163742062616c616e636520666f60448201526872207265776172647360b81b606482015260840161072b565b60008281526005602090815260408083203384529091528120600281018054919284926107c4908490611bf7565b9091555050426001820155604051600090339084908381818185875af1925050503d8060008114610811576040519150601f19603f3d011682016040523d82523d6000602084013e610816565b606091505b50509050806108605760405162461bcd60e51b815260206004820152601660248201527514995dd85c99081d1c985b9cd9995c8819985a5b195960521b604482015260640161072b565b604051838152849033907fdacbdde355ba930696a362ea6738feb9f8bd52dfb3d81947558fd3217e23e3259060200160405180910390a35050506108b16001600080516020611e3783398151915255565b50565b6001600160a01b0381166108fd5760405162461bcd60e51b815260206004820152601060248201526f24b73b30b634b2103932b332b93932b960811b604482015260640161072b565b336001600160a01b0382160361094d5760405162461bcd60e51b815260206004820152601560248201527421b0b73737ba103932b332b9103cb7bab939b2b63360591b604482015260640161072b565b3360009081526006602052604090206002015460ff16156109b05760405162461bcd60e51b815260206004820152601b60248201527f526566657272616c20616c726561647920726567697374657265640000000000604482015260640161072b565b604080516060810182526001600160a01b0380841680835260006020808501828152600186880181815233808652600685528986209851895498166001600160a01b0319988916178955925188830155516002909701805497151560ff1990981697909717909655838352600782528683208054968701815583529082209094018054909316841790925592517f5f1ca2fcc108b751843a763e60d2201f593516109d7dbb1b700468f2d4190bb79190a350565b6000806000806001548510610a8b5760405162461bcd60e51b815260040161072b90611c0a565b5050506000918252506004602081905260409091209081015460058201546003830154600690930154919390929160ff1690565b6001600160a01b038116600090815260076020908152604091829020805483518184028101840190945280845260609392830182828015610b2957602002820191906000526020600020905b81546001600160a01b03168152600190910190602001808311610b0b575b50505050509050919050565b610b3d6116e1565b610b4561170e565b565b610b4f61169a565b610b576116b6565b6001548210610b785760405162461bcd60e51b815260040161072b90611c0a565b60008281526005602090815260408083203384529091529020600381015460ff16610bd65760405162461bcd60e51b815260206004820152600e60248201526d139bc81cdd185ad948199bdd5b9960921b604482015260640161072b565b8054821115610c275760405162461bcd60e51b815260206004820152601b60248201527f496e73756666696369656e74207374616b65642062616c616e63650000000000604482015260640161072b565b60008211610c6c5760405162461bcd60e51b81526020600482015260126024820152710416d6f756e74206d757374206265203e20360741b604482015260640161072b565b81816000016000828254610c809190611c37565b909155505060008381526004602081905260408220018054849290610ca6908490611c37565b925050819055508160036000828254610cbf9190611c37565b9091555050604051600090339084908381818185875af1925050503d8060008114610d06576040519150601f19603f3d011682016040523d82523d6000602084013e610d0b565b606091505b5050905080610d525760405162461bcd60e51b8152602060048201526013602482015272109390881d1c985b9cd9995c8819985a5b1959606a1b604482015260640161072b565b604051838152849033907f92ccf450a286a957af52509bc1c9939d1a6a481783e142e41e2499f0bb66ebc69060200160405180910390a35050610da26001600080516020611e3783398151915255565b5050565b610dae6116e1565b610b456000611763565b610dc06116e1565b610b456117b3565b610dd06116e1565b6107d0811115610e225760405162461bcd60e51b815260206004820152601760248201527f526566657272616c20626f6e757320746f6f2068696768000000000000000000604482015260640161072b565b600280549082905560408051828152602081018490527f90075deb74564b91eb6f5bd9277209569cfeddf2e3e9ba827e39a9eaff30ee91910160405180910390a15050565b610e6f6116e1565b83610eb15760405162461bcd60e51b8152602060048201526012602482015271141bdbdb081b985b59481c995c5d5a5c995960721b604482015260640161072b565b612710811115610ef95760405162461bcd60e51b81526020600482015260136024820152724150592065786365656473206d6178696d756d60681b604482015260640161072b565b600154604080516101206020601f89018190040282018101909252610100810187815290918291908990899081908501838280828437600092018290525093855250505060208083018890526040808401889052606084018790526080840183905260a08401839052600160c08501524260e090940193909352848252600490522081518190610f899082611ceb565b50602082015160018281019190915560408301516002830155606083015160038301556080830151600483015560a0830151600583015560c083015160068301805460ff191691151591909117905560e0909201516007909101558054906000610ff283611dab565b9190505550807f3040bbc5c012df6c85e9f1cc10202ceda09051bc16d18aa369bf9ada2ba7716f87878560405161102b93929190611dc4565b60405180910390a2505050505050565b60046020526000908152604090208054819061105690611c60565b80601f016020809104026020016040519081016040528092919081815260200182805461108290611c60565b80156110cf5780601f106110a4576101008083540402835291602001916110cf565b820191906000526020600020905b8154815290600101906020018083116110b257829003601f168201915b50505050600183015460028401546003850154600486015460058701546006880154600790980154969794969395509193909260ff9091169088565b6111136116e1565b60015483106111345760405162461bcd60e51b815260040161072b90611c0a565b61271081111561117c5760405162461bcd60e51b81526020600482015260136024820152724150592065786365656473206d6178696d756d60681b604482015260640161072b565b60008381526004602090815260409182902060068101805460ff19168615159081179091556003909101849055825190815290810183905284917f1ae3e410cf35f6b4cf194bf70854cc944d025b496b9e302625b95b35c1c3a86d910160405180910390a2505050565b6111ee61169a565b6111f66116b6565b60015481106112175760405162461bcd60e51b815260040161072b90611c0a565b6000818152600460205260409020600681015460ff1661126e5760405162461bcd60e51b8152602060048201526012602482015271506f6f6c206973206e6f742061637469766560701b604482015260640161072b565b80600101543410156112ba5760405162461bcd60e51b815260206004820152601560248201527410995b1bddc81b5a5b9a5b5d5b4819195c1bdcda5d605a1b604482015260640161072b565b60028101541561133c57600281015460008381526005602090815260408083203384529091529020546112ee903490611bf7565b111561133c5760405162461bcd60e51b815260206004820152601760248201527f45786365656473206d6178696d756d206465706f736974000000000000000000604482015260640161072b565b60008281526005602090815260408083203384529091529020600381015460ff166113885760038101805460ff1916600117905560058201805490600061138283611dab565b91905055505b3481600001600082825461139c9190611bf7565b90915550504260018201556004820180543491906000906113be908490611bf7565b9250508190555034600360008282546113d79190611bf7565b9091555050604051348152839033907f73a19dd210f1a7f902193214c0ee91dd35ee5b4d920cba8d519eca65a7b488ca9060200160405180910390a361141d33346117f6565b50506108b16001600080516020611e3783398151915255565b60008181526005602090815260408083206001600160a01b03861684529091529020545b92915050565b60008281526005602090815260408083206001600160a01b03851684529091528120600381015460ff16158061149557508054155b156114a457600091505061145a565b60008160010154426114b69190611c37565b905060006114ca6127106301e13380611dfd565b600087815260046020526040902060030154845484916114e991611dfd565b6114f39190611dfd565b6114fd9190611e14565b9695505050505050565b61150f6116e1565b478061154a5760405162461bcd60e51b815260206004820152600a6024820152694e6f2062616c616e636560b01b604482015260640161072b565b600080546040516001600160a01b039091169083908381818185875af1925050503d8060008114611597576040519150601f19603f3d011682016040523d82523d6000602084013e61159c565b606091505b5050905080610da25760405162461bcd60e51b815260206004820152600f60248201526e151c985b9cd9995c8819985a5b1959608a1b604482015260640161072b565b600760205281600052604060002081815481106115fb57600080fd5b6000918252602090912001546001600160a01b03169150829050565b61161f6116e1565b6001600160a01b03811661164957604051631e4fbdf760e01b81526000600482015260240161072b565b6108b181611763565b61165a6116e1565b60003411610b455760405162461bcd60e51b815260206004820152600d60248201526c26bab9ba1039b2b7321021272160991b604482015260640161072b565b6116a2611914565b6002600080516020611e3783398151915255565b600054600160a01b900460ff1615610b455760405163d93c066560e01b815260040160405180910390fd5b6000546001600160a01b03163314610b455760405163118cdaa760e01b815233600482015260240161072b565b611716611944565b6000805460ff60a01b191690557f5db9ee0a495bf2e6ff9c91a7834c1ba4fdd244a5e8aa4e537bd38aeae4b073aa335b6040516001600160a01b03909116815260200160405180910390a1565b600080546001600160a01b038381166001600160a01b0319831681178455604051919092169283917f8be0079c531659141344cd1fd0a4f28419497f9722a3daafe3b4186f6b6457e09190a35050565b6117bb6116b6565b6000805460ff60a01b1916600160a01b1790557f62e78cea01bee320cd4e420270b5ea74000d11b0c9f74754ebdbfc544b05a2586117463390565b6001600160a01b0382166000908152600660205260409020600281015460ff1661181f57505050565b6000612710600254846118329190611dfd565b61183c9190611e14565b905080158061184a57508047105b156118555750505050565b808260010160008282546118699190611bf7565b909155505081546040516000916001600160a01b03169083908381818185875af1925050503d80600081146118ba576040519150601f19603f3d011682016040523d82523d6000602084013e6118bf565b606091505b50509050801561190d5782546040518381526001600160a01b038781169216907fb2dee5f49e7a09a5d7c95cd4dd5dc6410eea65d4e14519d6d3a6e14c8cf0e0e99060200160405180910390a35b5050505050565b600080516020611e3783398151915254600203610b4557604051633ee5aeb560e01b815260040160405180910390fd5b600054600160a01b900460ff16610b4557604051638dfc202b60e01b815260040160405180910390fd5b80356001600160a01b038116811461198557600080fd5b919050565b6000806040838503121561199d57600080fd5b6119a68361196e565b946020939093013593505050565b6000602082840312156119c657600080fd5b5035919050565b6000602082840312156119df57600080fd5b6119e88261196e565b9392505050565b6020808252825182820181905260009190848201906040850190845b81811015611a305783516001600160a01b031683529284019291840191600101611a0b565b50909695505050505050565b60008060408385031215611a4f57600080fd5b50508035926020909101359150565b600080600080600060808688031215611a7657600080fd5b853567ffffffffffffffff80821115611a8e57600080fd5b818801915088601f830112611aa257600080fd5b813581811115611ab157600080fd5b896020828501011115611ac357600080fd5b60209283019a909950918801359760408101359750606001359550909350505050565b60006101008083528a518082850152600091505b80821015611b1c576020828d0101516101208386010152602082019150611afa565b6101209150600082828601015281601f19601f830116850101925050508860208301528760408301528660608301528560808301528460a0830152611b6560c083018515159052565b8260e08301529998505050505050505050565b600080600060608486031215611b8d57600080fd5b8335925060208401358015158114611ba457600080fd5b929592945050506040919091013590565b60008060408385031215611bc857600080fd5b82359150611bd86020840161196e565b90509250929050565b634e487b7160e01b600052601160045260246000fd5b8082018082111561145a5761145a611be1565b602080825260139082015272141bdbdb08191bd95cc81b9bdd08195e1a5cdd606a1b604082015260600190565b8181038181111561145a5761145a611be1565b634e487b7160e01b600052604160045260246000fd5b600181811c90821680611c7457607f821691505b602082108103611c9457634e487b7160e01b600052602260045260246000fd5b50919050565b601f821115611ce6576000816000526020600020601f850160051c81016020861015611cc35750805b601f850160051c820191505b81811015611ce257828155600101611ccf565b5050505b505050565b815167ffffffffffffffff811115611d0557611d05611c4a565b611d1981611d138454611c60565b84611c9a565b602080601f831160018114611d4e5760008415611d365750858301515b600019600386901b1c1916600185901b178555611ce2565b600085815260208120601f198616915b82811015611d7d57888601518255948401946001909101908401611d5e565b5085821015611d9b5787850151600019600388901b60f8161c191681555b5050505050600190811b01905550565b600060018201611dbd57611dbd611be1565b5060010190565b604081528260408201528284606083013760006060848301015260006060601f19601f8601168301019050826020830152949350505050565b808202811582820484141761145a5761145a611be1565b600082611e3157634e487b7160e01b600052601260045260246000fd5b50049056fe9b779b17422d0df92223018b32b4d1fa46e071723d6817e2486d003becc55f00a264697066735822122001a8ed654430d220360a160f03c47cf132b9f22786f043933af4ed0c0821b03d64736f6c63430008180033","opcodes":"PUSH1 0x80 PUSH1 0x40 MSTORE PUSH2 0x1F4 PUSH1 0x2 SSTORE CALLVALUE DUP1 ISZERO PUSH2 0x16 JUMPI PUSH1 0x0 DUP1 REVERT JUMPDEST POP CALLER DUP1 PUSH2 0x3D JUMPI PUSH1 0x40 MLOAD PUSH4 0x1E4FBDF7 PUSH1 0xE0 SHL DUP2 MSTORE PUSH1 0x0 PUSH1 0x4 DUP3 ADD MSTORE PUSH1 0x24 ADD PUSH1 0x40 MLOAD DUP1 SWAP2 SUB SWAP1 REVERT JUMPDEST PUSH2 0x46 DUP2 PUSH2 0x70 JUMP JUMPDEST POP PUSH1 0x1 PUSH32 0x9B779B17422D0DF92223018B32B4D1FA46E071723D6817E2486D003BECC55F00 SSTORE PUSH2 0xC0 JUMP JUMPDEST PUSH1 0x0 DUP1 SLOAD PUSH1 0x1 PUSH1 0x1 PUSH1 0xA0 SHL SUB DUP4 DUP2 AND PUSH1 0x1 PUSH1 0x1 PUSH1 0xA0 SHL SUB NOT DUP4 AND DUP2 OR DUP5 SSTORE PUSH1 0x40 MLOAD SWAP2 SWAP1 SWAP3 AND SWAP3 DUP4 SWAP2 PUSH32 0x8BE0079C531659141344CD1FD0A4F28419497F9722A3DAAFE3B4186F6B6457E0 SWAP2 SWAP1 LOG3 POP POP JUMP JUMPDEST PUSH2 0x1E8C DUP1 PUSH2 0xCF PUSH1 0x0 CODECOPY PUSH1 0x0 RETURN INVALID PUSH1 0x80 PUSH1 0x40 MSTORE PUSH1 0x4 CALLDATASIZE LT PUSH2 0x1C5 JUMPI PUSH1 0x0 CALLDATALOAD PUSH1 0xE0 SHR DUP1 PUSH4 0x9CA423B3 GT PUSH2 0xF7 JUMPI DUP1 PUSH4 0xDB2E21BC GT PUSH2 0x95 JUMPI DUP1 PUSH4 0xF2FDE38B GT PUSH2 0x64 JUMPI DUP1 PUSH4 0xF2FDE38B EQ PUSH2 0x623 JUMPI DUP1 PUSH4 0xF525CB68 EQ PUSH2 0x643 JUMPI DUP1 PUSH4 0xFD967F47 EQ PUSH2 0x659 JUMPI DUP1 PUSH4 0xFF18BF0B EQ PUSH2 0x66F JUMPI PUSH1 0x0 DUP1 REVERT JUMPDEST DUP1 PUSH4 0xDB2E21BC EQ PUSH2 0x588 JUMPI DUP1 PUSH4 0xE8990524 EQ PUSH2 0x59D JUMPI DUP1 PUSH4 0xE92820E6 EQ PUSH2 0x5ED JUMPI DUP1 PUSH4 0xEC18154E EQ PUSH2 0x60D JUMPI PUSH1 0x0 DUP1 REVERT JUMPDEST DUP1 PUSH4 0xB1D24443 GT PUSH2 0xD1 JUMPI DUP1 PUSH4 0xB1D24443 EQ PUSH2 0x515 JUMPI DUP1 PUSH4 0xB6B55F25 EQ PUSH2 0x535 JUMPI DUP1 PUSH4 0xCEC695FA EQ PUSH2 0x548 JUMPI DUP1 PUSH4 0xD18DF53C EQ PUSH2 0x568 JUMPI PUSH1 0x0 DUP1 REVERT JUMPDEST DUP1 PUSH4 0x9CA423B3 EQ PUSH2 0x451 JUMPI DUP1 PUSH4 0xA208298B EQ PUSH2 0x4C1 JUMPI DUP1 PUSH4 0xAC4AFA38 EQ PUSH2 0x4E1 JUMPI PUSH1 0x0 DUP1 REVERT JUMPDEST DUP1 PUSH4 0x3F4BA83A GT PUSH2 0x164 JUMPI DUP1 PUSH4 0x715018A6 GT PUSH2 0x13E JUMPI DUP1 PUSH4 0x715018A6 EQ PUSH2 0x3D5 JUMPI DUP1 PUSH4 0x8456CB59 EQ PUSH2 0x3EA JUMPI DUP1 PUSH4 0x8DA5CB5B EQ PUSH2 0x3FF JUMPI DUP1 PUSH4 0x9A037AA0 EQ PUSH2 0x431 JUMPI PUSH1 0x0 DUP1 REVERT JUMPDEST DUP1 PUSH4 0x3F4BA83A EQ PUSH2 0x376 JUMPI DUP1 PUSH4 0x441A3E70 EQ PUSH2 0x38B JUMPI DUP1 PUSH4 0x5C975ABB EQ PUSH2 0x3AB JUMPI PUSH1 0x0 DUP1 REVERT JUMPDEST DUP1 PUSH4 0x209AB711 GT PUSH2 0x1A0 JUMPI DUP1 PUSH4 0x209AB711 EQ PUSH2 0x25C JUMPI DUP1 PUSH4 0x21874AE2 EQ PUSH2 0x27C JUMPI DUP1 PUSH4 0x2F380B35 EQ PUSH2 0x307 JUMPI DUP1 PUSH4 0x32E5B6D8 EQ PUSH2 0x349 JUMPI PUSH1 0x0 DUP1 REVERT JUMPDEST DUP1 PUSH3 0xAE5FAA EQ PUSH2 0x1D1 JUMPI DUP1 PUSH4 0x962EF79 EQ PUSH2 0x216 JUMPI DUP1 PUSH4 0x195AD3D5 EQ PUSH2 0x238 JUMPI PUSH1 0x0 DUP1 REVERT JUMPDEST CALLDATASIZE PUSH2 0x1CC JUMPI STOP JUMPDEST PUSH1 0x0 DUP1 REVERT JUMPDEST CALLVALUE DUP1 ISZERO PUSH2 0x1DD JUMPI PUSH1 0x0 DUP1 REVERT JUMPDEST POP PUSH2 0x1F1 PUSH2 0x1EC CALLDATASIZE PUSH1 0x4 PUSH2 0x198A JUMP JUMPDEST PUSH2 0x677 JUMP JUMPDEST PUSH1 0x40 DUP1 MLOAD SWAP5 DUP6 MSTORE PUSH1 0x20 DUP6 ADD SWAP4 SWAP1 SWAP4 MSTORE SWAP2 DUP4 ADD MSTORE PUSH1 0x60 DUP3 ADD MSTORE PUSH1 0x80 ADD JUMPDEST PUSH1 0x40 MLOAD DUP1 SWAP2 SUB SWAP1 RETURN JUMPDEST CALLVALUE DUP1 ISZERO PUSH2 0x222 JUMPI PUSH1 0x0 DUP1 REVERT JUMPDEST POP PUSH2 0x236 PUSH2 0x231 CALLDATASIZE PUSH1 0x4 PUSH2 0x19B4 JUMP JUMPDEST PUSH2 0x6CB JUMP JUMPDEST STOP JUMPDEST CALLVALUE DUP1 ISZERO PUSH2 0x244 JUMPI PUSH1 0x0 DUP1 REVERT JUMPDEST POP PUSH2 0x24E PUSH1 0x2 SLOAD DUP2 JUMP JUMPDEST PUSH1 0x40 MLOAD SWAP1 DUP2 MSTORE PUSH1 0x20 ADD PUSH2 0x20D JUMP JUMPDEST CALLVALUE DUP1 ISZERO PUSH2 0x268 JUMPI PUSH1 0x0 DUP1 REVERT JUMPDEST POP PUSH2 0x236 PUSH2 0x277 CALLDATASIZE PUSH1 0x4 PUSH2 0x19CD JUMP JUMPDEST PUSH2 0x8B4 JUMP JUMPDEST CALLVALUE DUP1 ISZERO PUSH2 0x288 JUMPI PUSH1 0x0 DUP1 REVERT JUMPDEST POP PUSH2 0x2D7 PUSH2 0x297 CALLDATASIZE PUSH1 0x4 PUSH2 0x19CD JUMP JUMPDEST PUSH1 0x1 PUSH1 0x1 PUSH1 0xA0 SHL SUB SWAP1 DUP2 AND PUSH1 0x0 SWAP1 DUP2 MSTORE PUSH1 0x6 PUSH1 0x20 SWAP1 DUP2 MSTORE PUSH1 0x40 DUP1 DUP4 KECCAK256 DUP1 SLOAD PUSH1 0x1 DUP3 ADD SLOAD PUSH1 0x2 SWAP1 SWAP3 ADD SLOAD PUSH1 0x7 SWAP1 SWAP5 MSTORE SWAP2 SWAP1 SWAP4 KECCAK256 SLOAD SWAP4 AND SWAP4 SWAP2 SWAP3 PUSH1 0xFF SWAP1 SWAP2 AND SWAP2 JUMP JUMPDEST PUSH1 0x40 DUP1 MLOAD PUSH1 0x1 PUSH1 0x1 PUSH1 0xA0 SHL SUB SWAP1 SWAP6 AND DUP6 MSTORE PUSH1 0x20 DUP6 ADD SWAP4 SWAP1 SWAP4 MSTORE SWAP1 ISZERO ISZERO SWAP2 DUP4 ADD SWAP2 SWAP1 SWAP2 MSTORE PUSH1 0x60 DUP3 ADD MSTORE PUSH1 0x80 ADD PUSH2 0x20D JUMP JUMPDEST CALLVALUE DUP1 ISZERO PUSH2 0x313 JUMPI PUSH1 0x0 DUP1 REVERT JUMPDEST POP PUSH2 0x327 PUSH2 0x322 CALLDATASIZE PUSH1 0x4 PUSH2 0x19B4 JUMP JUMPDEST PUSH2 0xA64 JUMP JUMPDEST PUSH1 0x40 DUP1 MLOAD SWAP5 DUP6 MSTORE PUSH1 0x20 DUP6 ADD SWAP4 SWAP1 SWAP4 MSTORE SWAP2 DUP4 ADD MSTORE ISZERO ISZERO PUSH1 0x60 DUP3 ADD MSTORE PUSH1 0x80 ADD PUSH2 0x20D JUMP JUMPDEST CALLVALUE DUP1 ISZERO PUSH2 0x355 JUMPI PUSH1 0x0 DUP1 REVERT JUMPDEST POP PUSH2 0x369 PUSH2 0x364 CALLDATASIZE PUSH1 0x4 PUSH2 0x19CD JUMP JUMPDEST PUSH2 0xABF JUMP JUMPDEST PUSH1 0x40 MLOAD PUSH2 0x20D SWAP2 SWAP1 PUSH2 0x19EF JUMP JUMPDEST CALLVALUE DUP1 ISZERO PUSH2 0x382 JUMPI PUSH1 0x0 DUP1 REVERT JUMPDEST POP PUSH2 0x236 PUSH2 0xB35 JUMP JUMPDEST CALLVALUE DUP1 ISZERO PUSH2 0x397 JUMPI PUSH1 0x0 DUP1 REVERT JUMPDEST POP PUSH2 0x236 PUSH2 0x3A6 CALLDATASIZE PUSH1 0x4 PUSH2 0x1A3C JUMP JUMPDEST PUSH2 0xB47 JUMP JUMPDEST CALLVALUE DUP1 ISZERO PUSH2 0x3B7 JUMPI PUSH1 0x0 DUP1 REVERT JUMPDEST POP PUSH1 0x0 SLOAD PUSH1 0x1 PUSH1 0xA0 SHL SWAP1 DIV PUSH1 0xFF AND PUSH1 0x40 MLOAD SWAP1 ISZERO ISZERO DUP2 MSTORE PUSH1 0x20 ADD PUSH2 0x20D JUMP JUMPDEST CALLVALUE DUP1 ISZERO PUSH2 0x3E1 JUMPI PUSH1 0x0 DUP1 REVERT JUMPDEST POP PUSH2 0x236 PUSH2 0xDA6 JUMP JUMPDEST CALLVALUE DUP1 ISZERO PUSH2 0x3F6 JUMPI PUSH1 0x0 DUP1 REVERT JUMPDEST POP PUSH2 0x236 PUSH2 0xDB8 JUMP JUMPDEST CALLVALUE DUP1 ISZERO PUSH2 0x40B JUMPI PUSH1 0x0 DUP1 REVERT JUMPDEST POP PUSH1 0x0 SLOAD PUSH1 0x1 PUSH1 0x1 PUSH1 0xA0 SHL SUB AND JUMPDEST PUSH1 0x40 MLOAD PUSH1 0x1 PUSH1 0x1 PUSH1 0xA0 SHL SUB SWAP1 SWAP2 AND DUP2 MSTORE PUSH1 0x20 ADD PUSH2 0x20D JUMP JUMPDEST CALLVALUE DUP1 ISZERO PUSH2 0x43D JUMPI PUSH1 0x0 DUP1 REVERT JUMPDEST POP PUSH2 0x236 PUSH2 0x44C CALLDATASIZE PUSH1 0x4 PUSH2 0x19B4 JUMP JUMPDEST PUSH2 0xDC8 JUMP JUMPDEST CALLVALUE DUP1 ISZERO PUSH2 0x45D JUMPI PUSH1 0x0 DUP1 REVERT JUMPDEST POP PUSH2 0x49A PUSH2 0x46C CALLDATASIZE PUSH1 0x4 PUSH2 0x19CD JUMP JUMPDEST PUSH1 0x6 PUSH1 0x20 MSTORE PUSH1 0x0 SWAP1 DUP2 MSTORE PUSH1 0x40 SWAP1 KECCAK256 DUP1 SLOAD PUSH1 0x1 DUP3 ADD SLOAD PUSH1 0x2 SWAP1 SWAP3 ADD SLOAD PUSH1 0x1 PUSH1 0x1 PUSH1 0xA0 SHL SUB SWAP1 SWAP2 AND SWAP2 SWAP1 PUSH1 0xFF AND DUP4 JUMP JUMPDEST PUSH1 0x40 DUP1 MLOAD PUSH1 0x1 PUSH1 0x1 PUSH1 0xA0 SHL SUB SWAP1 SWAP5 AND DUP5 MSTORE PUSH1 0x20 DUP5 ADD SWAP3 SWAP1 SWAP3 MSTORE ISZERO ISZERO SWAP1 DUP3 ADD MSTORE PUSH1 0x60 ADD PUSH2 0x20D JUMP JUMPDEST CALLVALUE DUP1 ISZERO PUSH2 0x4CD JUMPI PUSH1 0x0 DUP1 REVERT JUMPDEST POP PUSH2 0x236 PUSH2 0x4DC CALLDATASIZE PUSH1 0x4 PUSH2 0x1A5E JUMP JUMPDEST PUSH2 0xE67 JUMP JUMPDEST CALLVALUE DUP1 ISZERO PUSH2 0x4ED JUMPI PUSH1 0x0 DUP1 REVERT JUMPDEST POP PUSH2 0x501 PUSH2 0x4FC CALLDATASIZE PUSH1 0x4 PUSH2 0x19B4 JUMP JUMPDEST PUSH2 0x103B JUMP JUMPDEST PUSH1 0x40 MLOAD PUSH2 0x20D SWAP9 SWAP8 SWAP7 SWAP6 SWAP5 SWAP4 SWAP3 SWAP2 SWAP1 PUSH2 0x1AE6 JUMP JUMPDEST CALLVALUE DUP1 ISZERO PUSH2 0x521 JUMPI PUSH1 0x0 DUP1 REVERT JUMPDEST POP PUSH2 0x236 PUSH2 0x530 CALLDATASIZE PUSH1 0x4 PUSH2 0x1B78 JUMP JUMPDEST PUSH2 0x110B JUMP JUMPDEST PUSH2 0x236 PUSH2 0x543 CALLDATASIZE PUSH1 0x4 PUSH2 0x19B4 JUMP JUMPDEST PUSH2 0x11E6 JUMP JUMPDEST CALLVALUE DUP1 ISZERO PUSH2 0x554 JUMPI PUSH1 0x0 DUP1 REVERT JUMPDEST POP PUSH2 0x24E PUSH2 0x563 CALLDATASIZE PUSH1 0x4 PUSH2 0x198A JUMP JUMPDEST PUSH2 0x1436 JUMP JUMPDEST CALLVALUE DUP1 ISZERO PUSH2 0x574 JUMPI PUSH1 0x0 DUP1 REVERT JUMPDEST POP PUSH2 0x24E PUSH2 0x583 CALLDATASIZE PUSH1 0x4 PUSH2 0x1BB5 JUMP JUMPDEST PUSH2 0x1460 JUMP JUMPDEST CALLVALUE DUP1 ISZERO PUSH2 0x594 JUMPI PUSH1 0x0 DUP1 REVERT JUMPDEST POP PUSH2 0x236 PUSH2 0x1507 JUMP JUMPDEST CALLVALUE DUP1 ISZERO PUSH2 0x5A9 JUMPI PUSH1 0x0 DUP1 REVERT JUMPDEST POP PUSH2 0x327 PUSH2 0x5B8 CALLDATASIZE PUSH1 0x4 PUSH2 0x1BB5 JUMP JUMPDEST PUSH1 0x5 PUSH1 0x20 SWAP1 DUP2 MSTORE PUSH1 0x0 SWAP3 DUP4 MSTORE PUSH1 0x40 DUP1 DUP5 KECCAK256 SWAP1 SWAP2 MSTORE SWAP1 DUP3 MSTORE SWAP1 KECCAK256 DUP1 SLOAD PUSH1 0x1 DUP3 ADD SLOAD PUSH1 0x2 DUP4 ADD SLOAD PUSH1 0x3 SWAP1 SWAP4 ADD SLOAD SWAP2 SWAP3 SWAP1 SWAP2 PUSH1 0xFF AND DUP5 JUMP JUMPDEST CALLVALUE DUP1 ISZERO PUSH2 0x5F9 JUMPI PUSH1 0x0 DUP1 REVERT JUMPDEST POP PUSH2 0x419 PUSH2 0x608 CALLDATASIZE PUSH1 0x4 PUSH2 0x198A JUMP JUMPDEST PUSH2 0x15DF JUMP JUMPDEST CALLVALUE DUP1 ISZERO PUSH2 0x619 JUMPI PUSH1 0x0 DUP1 REVERT JUMPDEST POP PUSH2 0x24E PUSH1 0x3 SLOAD DUP2 JUMP JUMPDEST CALLVALUE DUP1 ISZERO PUSH2 0x62F JUMPI PUSH1 0x0 DUP1 REVERT JUMPDEST POP PUSH2 0x236 PUSH2 0x63E CALLDATASIZE PUSH1 0x4 PUSH2 0x19CD JUMP JUMPDEST PUSH2 0x1617 JUMP JUMPDEST CALLVALUE DUP1 ISZERO PUSH2 0x64F JUMPI PUSH1 0x0 DUP1 REVERT JUMPDEST POP PUSH2 0x24E PUSH1 0x1 SLOAD DUP2 JUMP JUMPDEST CALLVALUE DUP1 ISZERO PUSH2 0x665 JUMPI PUSH1 0x0 DUP1 REVERT JUMPDEST POP PUSH2 0x24E PUSH2 0x2710 DUP2 JUMP JUMPDEST PUSH2 0x236 PUSH2 0x1652 JUMP JUMPDEST PUSH1 0x0 DUP2 DUP2 MSTORE PUSH1 0x5 PUSH1 0x20 SWAP1 DUP2 MSTORE PUSH1 0x40 DUP1 DUP4 KECCAK256 PUSH1 0x1 PUSH1 0x1 PUSH1 0xA0 SHL SUB DUP7 AND DUP5 MSTORE SWAP1 SWAP2 MSTORE DUP2 KECCAK256 DUP1 SLOAD PUSH1 0x1 DUP3 ADD SLOAD PUSH1 0x2 DUP4 ADD SLOAD DUP5 SWAP4 DUP5 SWAP4 DUP5 SWAP4 SWAP2 SWAP3 SWAP1 SWAP2 SWAP1 PUSH2 0x6BA DUP10 DUP12 PUSH2 0x1460 JUMP JUMPDEST SWAP3 SWAP11 SWAP2 SWAP10 POP SWAP8 POP SWAP1 SWAP6 POP SWAP4 POP POP POP POP JUMP JUMPDEST PUSH2 0x6D3 PUSH2 0x169A JUMP JUMPDEST PUSH2 0x6DB PUSH2 0x16B6 JUMP JUMPDEST PUSH1 0x0 PUSH2 0x6E7 DUP3 CALLER PUSH2 0x1460 JUMP JUMPDEST SWAP1 POP PUSH1 0x0 DUP2 GT PUSH2 0x734 JUMPI PUSH1 0x40 MLOAD PUSH3 0x461BCD PUSH1 0xE5 SHL DUP2 MSTORE PUSH1 0x20 PUSH1 0x4 DUP3 ADD MSTORE PUSH1 0x13 PUSH1 0x24 DUP3 ADD MSTORE PUSH19 0x4E6F207265776172647320746F20636C61696D PUSH1 0x68 SHL PUSH1 0x44 DUP3 ADD MSTORE PUSH1 0x64 ADD JUMPDEST PUSH1 0x40 MLOAD DUP1 SWAP2 SUB SWAP1 REVERT JUMPDEST DUP1 SELFBALANCE LT ISZERO PUSH2 0x796 JUMPI PUSH1 0x40 MLOAD PUSH3 0x461BCD PUSH1 0xE5 SHL DUP2 MSTORE PUSH1 0x20 PUSH1 0x4 DUP3 ADD MSTORE PUSH1 0x29 PUSH1 0x24 DUP3 ADD MSTORE PUSH32 0x496E73756666696369656E7420636F6E74726163742062616C616E636520666F PUSH1 0x44 DUP3 ADD MSTORE PUSH9 0x722072657761726473 PUSH1 0xB8 SHL PUSH1 0x64 DUP3 ADD MSTORE PUSH1 0x84 ADD PUSH2 0x72B JUMP JUMPDEST PUSH1 0x0 DUP3 DUP2 MSTORE PUSH1 0x5 PUSH1 0x20 SWAP1 DUP2 MSTORE PUSH1 0x40 DUP1 DUP4 KECCAK256 CALLER DUP5 MSTORE SWAP1 SWAP2 MSTORE DUP2 KECCAK256 PUSH1 0x2 DUP2 ADD DUP1 SLOAD SWAP2 SWAP3 DUP5 SWAP3 PUSH2 0x7C4 SWAP1 DUP5 SWAP1 PUSH2 0x1BF7 JUMP JUMPDEST SWAP1 SWAP2 SSTORE POP POP TIMESTAMP PUSH1 0x1 DUP3 ADD SSTORE PUSH1 0x40 MLOAD PUSH1 0x0 SWAP1 CALLER SWAP1 DUP5 SWAP1 DUP4 DUP2 DUP2 DUP2 DUP6 DUP8 GAS CALL SWAP3 POP POP POP RETURNDATASIZE DUP1 PUSH1 0x0 DUP2 EQ PUSH2 0x811 JUMPI PUSH1 0x40 MLOAD SWAP2 POP PUSH1 0x1F NOT PUSH1 0x3F RETURNDATASIZE ADD AND DUP3 ADD PUSH1 0x40 MSTORE RETURNDATASIZE DUP3 MSTORE RETURNDATASIZE PUSH1 0x0 PUSH1 0x20 DUP5 ADD RETURNDATACOPY PUSH2 0x816 JUMP JUMPDEST PUSH1 0x60 SWAP2 POP JUMPDEST POP POP SWAP1 POP DUP1 PUSH2 0x860 JUMPI PUSH1 0x40 MLOAD PUSH3 0x461BCD PUSH1 0xE5 SHL DUP2 MSTORE PUSH1 0x20 PUSH1 0x4 DUP3 ADD MSTORE PUSH1 0x16 PUSH1 0x24 DUP3 ADD MSTORE PUSH22 0x14995DD85C99081D1C985B9CD9995C8819985A5B1959 PUSH1 0x52 SHL PUSH1 0x44 DUP3 ADD MSTORE PUSH1 0x64 ADD PUSH2 0x72B JUMP JUMPDEST PUSH1 0x40 MLOAD DUP4 DUP2 MSTORE DUP5 SWAP1 CALLER SWAP1 PUSH32 0xDACBDDE355BA930696A362EA6738FEB9F8BD52DFB3D81947558FD3217E23E325 SWAP1 PUSH1 0x20 ADD PUSH1 0x40 MLOAD DUP1 SWAP2 SUB SWAP1 LOG3 POP POP POP PUSH2 0x8B1 PUSH1 0x1 PUSH1 0x0 DUP1 MLOAD PUSH1 0x20 PUSH2 0x1E37 DUP4 CODECOPY DUP2 MLOAD SWAP2 MSTORE SSTORE JUMP JUMPDEST POP JUMP JUMPDEST PUSH1 0x1 PUSH1 0x1 PUSH1 0xA0 SHL SUB DUP2 AND PUSH2 0x8FD JUMPI PUSH1 0x40 MLOAD PUSH3 0x461BCD PUSH1 0xE5 SHL DUP2 MSTORE PUSH1 0x20 PUSH1 0x4 DUP3 ADD MSTORE PUSH1 0x10 PUSH1 0x24 DUP3 ADD MSTORE PUSH16 0x24B73B30B634B2103932B332B93932B9 PUSH1 0x81 SHL PUSH1 0x44 DUP3 ADD MSTORE PUSH1 0x64 ADD PUSH2 0x72B JUMP JUMPDEST CALLER PUSH1 0x1 PUSH1 0x1 PUSH1 0xA0 SHL SUB DUP3 AND SUB PUSH2 0x94D JUMPI PUSH1 0x40 MLOAD PUSH3 0x461BCD PUSH1 0xE5 SHL DUP2 MSTORE PUSH1 0x20 PUSH1 0x4 DUP3 ADD MSTORE PUSH1 0x15 PUSH1 0x24 DUP3 ADD MSTORE PUSH21 0x21B0B73737BA103932B332B9103CB7BAB939B2B633 PUSH1 0x59 SHL PUSH1 0x44 DUP3 ADD MSTORE PUSH1 0x64 ADD PUSH2 0x72B JUMP JUMPDEST CALLER PUSH1 0x0 SWAP1 DUP2 MSTORE PUSH1 0x6 PUSH1 0x20 MSTORE PUSH1 0x40 SWAP1 KECCAK256 PUSH1 0x2 ADD SLOAD PUSH1 0xFF AND ISZERO PUSH2 0x9B0 JUMPI PUSH1 0x40 MLOAD PUSH3 0x461BCD PUSH1 0xE5 SHL DUP2 MSTORE PUSH1 0x20 PUSH1 0x4 DUP3 ADD MSTORE PUSH1 0x1B PUSH1 0x24 DUP3 ADD MSTORE PUSH32 0x526566657272616C20616C726561647920726567697374657265640000000000 PUSH1 0x44 DUP3 ADD MSTORE PUSH1 0x64 ADD PUSH2 0x72B JUMP JUMPDEST PUSH1 0x40 DUP1 MLOAD PUSH1 0x60 DUP2 ADD DUP3 MSTORE PUSH1 0x1 PUSH1 0x1 PUSH1 0xA0 SHL SUB DUP1 DUP5 AND DUP1 DUP4 MSTORE PUSH1 0x0 PUSH1 0x20 DUP1 DUP6 ADD DUP3 DUP2 MSTORE PUSH1 0x1 DUP7 DUP9 ADD DUP2 DUP2 MSTORE CALLER DUP1 DUP7 MSTORE PUSH1 0x6 DUP6 MSTORE DUP10 DUP7 KECCAK256 SWAP9 MLOAD DUP10 SLOAD SWAP9 AND PUSH1 0x1 PUSH1 0x1 PUSH1 0xA0 SHL SUB NOT SWAP9 DUP10 AND OR DUP10 SSTORE SWAP3 MLOAD DUP9 DUP4 ADD SSTORE MLOAD PUSH1 0x2 SWAP1 SWAP8 ADD DUP1 SLOAD SWAP8 ISZERO ISZERO PUSH1 0xFF NOT SWAP1 SWAP9 AND SWAP8 SWAP1 SWAP8 OR SWAP1 SWAP7 SSTORE DUP4 DUP4 MSTORE PUSH1 0x7 DUP3 MSTORE DUP7 DUP4 KECCAK256 DUP1 SLOAD SWAP7 DUP8 ADD DUP2 SSTORE DUP4 MSTORE SWAP1 DUP3 KECCAK256 SWAP1 SWAP5 ADD DUP1 SLOAD SWAP1 SWAP4 AND DUP5 OR SWAP1 SWAP3 SSTORE SWAP3 MLOAD PUSH32 0x5F1CA2FCC108B751843A763E60D2201F593516109D7DBB1B700468F2D4190BB7 SWAP2 SWAP1 LOG3 POP JUMP JUMPDEST PUSH1 0x0 DUP1 PUSH1 0x0 DUP1 PUSH1 0x1 SLOAD DUP6 LT PUSH2 0xA8B JUMPI PUSH1 0x40 MLOAD PUSH3 0x461BCD PUSH1 0xE5 SHL DUP2 MSTORE PUSH1 0x4 ADD PUSH2 0x72B SWAP1 PUSH2 0x1C0A JUMP JUMPDEST POP POP POP PUSH1 0x0 SWAP2 DUP3 MSTORE POP PUSH1 0x4 PUSH1 0x20 DUP2 SWAP1 MSTORE PUSH1 0x40 SWAP1 SWAP2 KECCAK256 SWAP1 DUP2 ADD SLOAD PUSH1 0x5 DUP3 ADD SLOAD PUSH1 0x3 DUP4 ADD SLOAD PUSH1 0x6 SWAP1 SWAP4 ADD SLOAD SWAP2 SWAP4 SWAP1 SWAP3 SWAP2 PUSH1 0xFF AND SWAP1 JUMP JUMPDEST PUSH1 0x1 PUSH1 0x1 PUSH1 0xA0 SHL SUB DUP2 AND PUSH1 0x0 SWAP1 DUP2 MSTORE PUSH1 0x7 PUSH1 0x20 SWAP1 DUP2 MSTORE PUSH1 0x40 SWAP2 DUP3 SWAP1 KECCAK256 DUP1 SLOAD DUP4 MLOAD DUP2 DUP5 MUL DUP2 ADD DUP5 ADD SWAP1 SWAP5 MSTORE DUP1 DUP5 MSTORE PUSH1 0x60 SWAP4 SWAP3 DUP4 ADD DUP3 DUP3 DUP1 ISZERO PUSH2 0xB29 JUMPI PUSH1 0x20 MUL DUP3 ADD SWAP2 SWAP1 PUSH1 0x0 MSTORE PUSH1 0x20 PUSH1 0x0 KECCAK256 SWAP1 JUMPDEST DUP2 SLOAD PUSH1 0x1 PUSH1 0x1 PUSH1 0xA0 SHL SUB AND DUP2 MSTORE PUSH1 0x1 SWAP1 SWAP2 ADD SWAP1 PUSH1 0x20 ADD DUP1 DUP4 GT PUSH2 0xB0B JUMPI JUMPDEST POP POP POP POP POP SWAP1 POP SWAP2 SWAP1 POP JUMP JUMPDEST PUSH2 0xB3D PUSH2 0x16E1 JUMP JUMPDEST PUSH2 0xB45 PUSH2 0x170E JUMP JUMPDEST JUMP JUMPDEST PUSH2 0xB4F PUSH2 0x169A JUMP JUMPDEST PUSH2 0xB57 PUSH2 0x16B6 JUMP JUMPDEST PUSH1 0x1 SLOAD DUP3 LT PUSH2 0xB78 JUMPI PUSH1 0x40 MLOAD PUSH3 0x461BCD PUSH1 0xE5 SHL DUP2 MSTORE PUSH1 0x4 ADD PUSH2 0x72B SWAP1 PUSH2 0x1C0A JUMP JUMPDEST PUSH1 0x0 DUP3 DUP2 MSTORE PUSH1 0x5 PUSH1 0x20 SWAP1 DUP2 MSTORE PUSH1 0x40 DUP1 DUP4 KECCAK256 CALLER DUP5 MSTORE SWAP1 SWAP2 MSTORE SWAP1 KECCAK256 PUSH1 0x3 DUP2 ADD SLOAD PUSH1 0xFF AND PUSH2 0xBD6 JUMPI PUSH1 0x40 MLOAD PUSH3 0x461BCD PUSH1 0xE5 SHL DUP2 MSTORE PUSH1 0x20 PUSH1 0x4 DUP3 ADD MSTORE PUSH1 0xE PUSH1 0x24 DUP3 ADD MSTORE PUSH14 0x139BC81CDD185AD948199BDD5B99 PUSH1 0x92 SHL PUSH1 0x44 DUP3 ADD MSTORE PUSH1 0x64 ADD PUSH2 0x72B JUMP JUMPDEST DUP1 SLOAD DUP3 GT ISZERO PUSH2 0xC27 JUMPI PUSH1 0x40 MLOAD PUSH3 0x461BCD PUSH1 0xE5 SHL DUP2 MSTORE PUSH1 0x20 PUSH1 0x4 DUP3 ADD MSTORE PUSH1 0x1B PUSH1 0x24 DUP3 ADD MSTORE PUSH32 0x496E73756666696369656E74207374616B65642062616C616E63650000000000 PUSH1 0x44 DUP3 ADD MSTORE PUSH1 0x64 ADD PUSH2 0x72B JUMP JUMPDEST PUSH1 0x0 DUP3 GT PUSH2 0xC6C JUMPI PUSH1 0x40 MLOAD PUSH3 0x461BCD PUSH1 0xE5 SHL DUP2 MSTORE PUSH1 0x20 PUSH1 0x4 DUP3 ADD MSTORE PUSH1 0x12 PUSH1 0x24 DUP3 ADD MSTORE PUSH18 0x416D6F756E74206D757374206265203E203 PUSH1 0x74 SHL PUSH1 0x44 DUP3 ADD MSTORE PUSH1 0x64 ADD PUSH2 0x72B JUMP JUMPDEST DUP2 DUP2 PUSH1 0x0 ADD PUSH1 0x0 DUP3 DUP3 SLOAD PUSH2 0xC80 SWAP2 SWAP1 PUSH2 0x1C37 JUMP JUMPDEST SWAP1 SWAP2 SSTORE POP POP PUSH1 0x0 DUP4 DUP2 MSTORE PUSH1 0x4 PUSH1 0x20 DUP2 SWAP1 MSTORE PUSH1 0x40 DUP3 KECCAK256 ADD DUP1 SLOAD DUP5 SWAP3 SWAP1 PUSH2 0xCA6 SWAP1 DUP5 SWAP1 PUSH2 0x1C37 JUMP JUMPDEST SWAP3 POP POP DUP2 SWAP1 SSTORE POP DUP2 PUSH1 0x3 PUSH1 0x0 DUP3 DUP3 SLOAD PUSH2 0xCBF SWAP2 SWAP1 PUSH2 0x1C37 JUMP JUMPDEST SWAP1 SWAP2 SSTORE POP POP PUSH1 0x40 MLOAD PUSH1 0x0 SWAP1 CALLER SWAP1 DUP5 SWAP1 DUP4 DUP2 DUP2 DUP2 DUP6 DUP8 GAS CALL SWAP3 POP POP POP RETURNDATASIZE DUP1 PUSH1 0x0 DUP2 EQ PUSH2 0xD06 JUMPI PUSH1 0x40 MLOAD SWAP2 POP PUSH1 0x1F NOT PUSH1 0x3F RETURNDATASIZE ADD AND DUP3 ADD PUSH1 0x40 MSTORE RETURNDATASIZE DUP3 MSTORE RETURNDATASIZE PUSH1 0x0 PUSH1 0x20 DUP5 ADD RETURNDATACOPY PUSH2 0xD0B JUMP JUMPDEST PUSH1 0x60 SWAP2 POP JUMPDEST POP POP SWAP1 POP DUP1 PUSH2 0xD52 JUMPI PUSH1 0x40 MLOAD PUSH3 0x461BCD PUSH1 0xE5 SHL DUP2 MSTORE PUSH1 0x20 PUSH1 0x4 DUP3 ADD MSTORE PUSH1 0x13 PUSH1 0x24 DUP3 ADD MSTORE PUSH19 0x109390881D1C985B9CD9995C8819985A5B1959 PUSH1 0x6A SHL PUSH1 0x44 DUP3 ADD MSTORE PUSH1 0x64 ADD PUSH2 0x72B JUMP JUMPDEST PUSH1 0x40 MLOAD DUP4 DUP2 MSTORE DUP5 SWAP1 CALLER SWAP1 PUSH32 0x92CCF450A286A957AF52509BC1C9939D1A6A481783E142E41E2499F0BB66EBC6 SWAP1 PUSH1 0x20 ADD PUSH1 0x40 MLOAD DUP1 SWAP2 SUB SWAP1 LOG3 POP POP PUSH2 0xDA2 PUSH1 0x1 PUSH1 0x0 DUP1 MLOAD PUSH1 0x20 PUSH2 0x1E37 DUP4 CODECOPY DUP2 MLOAD SWAP2 MSTORE SSTORE JUMP JUMPDEST POP POP JUMP JUMPDEST PUSH2 0xDAE PUSH2 0x16E1 JUMP JUMPDEST PUSH2 0xB45 PUSH1 0x0 PUSH2 0x1763 JUMP JUMPDEST PUSH2 0xDC0 PUSH2 0x16E1 JUMP JUMPDEST PUSH2 0xB45 PUSH2 0x17B3 JUMP JUMPDEST PUSH2 0xDD0 PUSH2 0x16E1 JUMP JUMPDEST PUSH2 0x7D0 DUP2 GT ISZERO PUSH2 0xE22 JUMPI PUSH1 0x40 MLOAD PUSH3 0x461BCD PUSH1 0xE5 SHL DUP2 MSTORE PUSH1 0x20 PUSH1 0x4 DUP3 ADD MSTORE PUSH1 0x17 PUSH1 0x24 DUP3 ADD MSTORE PUSH32 0x526566657272616C20626F6E757320746F6F2068696768000000000000000000 PUSH1 0x44 DUP3 ADD MSTORE PUSH1 0x64 ADD PUSH2 0x72B JUMP JUMPDEST PUSH1 0x2 DUP1 SLOAD SWAP1 DUP3 SWAP1 SSTORE PUSH1 0x40 DUP1 MLOAD DUP3 DUP2 MSTORE PUSH1 0x20 DUP2 ADD DUP5 SWAP1 MSTORE PUSH32 0x90075DEB74564B91EB6F5BD9277209569CFEDDF2E3E9BA827E39A9EAFF30EE91 SWAP2 ADD PUSH1 0x40 MLOAD DUP1 SWAP2 SUB SWAP1 LOG1 POP POP JUMP JUMPDEST PUSH2 0xE6F PUSH2 0x16E1 JUMP JUMPDEST DUP4 PUSH2 0xEB1 JUMPI PUSH1 0x40 MLOAD PUSH3 0x461BCD PUSH1 0xE5 SHL DUP2 MSTORE PUSH1 0x20 PUSH1 0x4 DUP3 ADD MSTORE PUSH1 0x12 PUSH1 0x24 DUP3 ADD MSTORE PUSH18 0x141BDBDB081B985B59481C995C5D5A5C9959 PUSH1 0x72 SHL PUSH1 0x44 DUP3 ADD MSTORE PUSH1 0x64 ADD PUSH2 0x72B JUMP JUMPDEST PUSH2 0x2710 DUP2 GT ISZERO PUSH2 0xEF9 JUMPI PUSH1 0x40 MLOAD PUSH3 0x461BCD PUSH1 0xE5 SHL DUP2 MSTORE PUSH1 0x20 PUSH1 0x4 DUP3 ADD MSTORE PUSH1 0x13 PUSH1 0x24 DUP3 ADD MSTORE PUSH19 0x4150592065786365656473206D6178696D756D PUSH1 0x68 SHL PUSH1 0x44 DUP3 ADD MSTORE PUSH1 0x64 ADD PUSH2 0x72B JUMP JUMPDEST PUSH1 0x1 SLOAD PUSH1 0x40 DUP1 MLOAD PUSH2 0x120 PUSH1 0x20 PUSH1 0x1F DUP10 ADD DUP2 SWAP1 DIV MUL DUP3 ADD DUP2 ADD SWAP1 SWAP3 MSTORE PUSH2 0x100 DUP2 ADD DUP8 DUP2 MSTORE SWAP1 SWAP2 DUP3 SWAP2 SWAP1 DUP10 SWAP1 DUP10 SWAP1 DUP2 SWAP1 DUP6 ADD DUP4 DUP3 DUP1 DUP3 DUP5 CALLDATACOPY PUSH1 0x0 SWAP3 ADD DUP3 SWAP1 MSTORE POP SWAP4 DUP6 MSTORE POP POP POP PUSH1 0x20 DUP1 DUP4 ADD DUP9 SWAP1 MSTORE PUSH1 0x40 DUP1 DUP5 ADD DUP9 SWAP1 MSTORE PUSH1 0x60 DUP5 ADD DUP8 SWAP1 MSTORE PUSH1 0x80 DUP5 ADD DUP4 SWAP1 MSTORE PUSH1 0xA0 DUP5 ADD DUP4 SWAP1 MSTORE PUSH1 0x1 PUSH1 0xC0 DUP6 ADD MSTORE TIMESTAMP PUSH1 0xE0 SWAP1 SWAP5 ADD SWAP4 SWAP1 SWAP4 MSTORE DUP5 DUP3 MSTORE PUSH1 0x4 SWAP1 MSTORE KECCAK256 DUP2 MLOAD DUP2 SWAP1 PUSH2 0xF89 SWAP1 DUP3 PUSH2 0x1CEB JUMP JUMPDEST POP PUSH1 0x20 DUP3 ADD MLOAD PUSH1 0x1 DUP3 DUP2 ADD SWAP2 SWAP1 SWAP2 SSTORE PUSH1 0x40 DUP4 ADD MLOAD PUSH1 0x2 DUP4 ADD SSTORE PUSH1 0x60 DUP4 ADD MLOAD PUSH1 0x3 DUP4 ADD SSTORE PUSH1 0x80 DUP4 ADD MLOAD PUSH1 0x4 DUP4 ADD SSTORE PUSH1 0xA0 DUP4 ADD MLOAD PUSH1 0x5 DUP4 ADD SSTORE PUSH1 0xC0 DUP4 ADD MLOAD PUSH1 0x6 DUP4 ADD DUP1 SLOAD PUSH1 0xFF NOT AND SWAP2 ISZERO ISZERO SWAP2 SWAP1 SWAP2 OR SWAP1 SSTORE PUSH1 0xE0 SWAP1 SWAP3 ADD MLOAD PUSH1 0x7 SWAP1 SWAP2 ADD SSTORE DUP1 SLOAD SWAP1 PUSH1 0x0 PUSH2 0xFF2 DUP4 PUSH2 0x1DAB JUMP JUMPDEST SWAP2 SWAP1 POP SSTORE POP DUP1 PUSH32 0x3040BBC5C012DF6C85E9F1CC10202CEDA09051BC16D18AA369BF9ADA2BA7716F DUP8 DUP8 DUP6 PUSH1 0x40 MLOAD PUSH2 0x102B SWAP4 SWAP3 SWAP2 SWAP1 PUSH2 0x1DC4 JUMP JUMPDEST PUSH1 0x40 MLOAD DUP1 SWAP2 SUB SWAP1 LOG2 POP POP POP POP POP POP JUMP JUMPDEST PUSH1 0x4 PUSH1 0x20 MSTORE PUSH1 0x0 SWAP1 DUP2 MSTORE PUSH1 0x40 SWAP1 KECCAK256 DUP1 SLOAD DUP2 SWAP1 PUSH2 0x1056 SWAP1 PUSH2 0x1C60 JUMP JUMPDEST DUP1 PUSH1 0x1F ADD PUSH1 0x20 DUP1 SWAP2 DIV MUL PUSH1 0x20 ADD PUSH1 0x40 MLOAD SWAP1 DUP2 ADD PUSH1 0x40 MSTORE DUP1 SWAP3 SWAP2 SWAP1 DUP2 DUP2 MSTORE PUSH1 0x20 ADD DUP3 DUP1 SLOAD PUSH2 0x1082 SWAP1 PUSH2 0x1C60 JUMP JUMPDEST DUP1 ISZERO PUSH2 0x10CF JUMPI DUP1 PUSH1 0x1F LT PUSH2 0x10A4 JUMPI PUSH2 0x100 DUP1 DUP4 SLOAD DIV MUL DUP4 MSTORE SWAP2 PUSH1 0x20 ADD SWAP2 PUSH2 0x10CF JUMP JUMPDEST DUP3 ADD SWAP2 SWAP1 PUSH1 0x0 MSTORE PUSH1 0x20 PUSH1 0x0 KECCAK256 SWAP1 JUMPDEST DUP2 SLOAD DUP2 MSTORE SWAP1 PUSH1 0x1 ADD SWAP1 PUSH1 0x20 ADD DUP1 DUP4 GT PUSH2 0x10B2 JUMPI DUP3 SWAP1 SUB PUSH1 0x1F AND DUP3 ADD SWAP2 JUMPDEST POP POP POP POP PUSH1 0x1 DUP4 ADD SLOAD PUSH1 0x2 DUP5 ADD SLOAD PUSH1 0x3 DUP6 ADD SLOAD PUSH1 0x4 DUP7 ADD SLOAD PUSH1 0x5 DUP8 ADD SLOAD PUSH1 0x6 DUP9 ADD SLOAD PUSH1 0x7 SWAP1 SWAP9 ADD SLOAD SWAP7 SWAP8 SWAP5 SWAP7 SWAP4 SWAP6 POP SWAP2 SWAP4 SWAP1 SWAP3 PUSH1 0xFF SWAP1 SWAP2 AND SWAP1 DUP9 JUMP JUMPDEST PUSH2 0x1113 PUSH2 0x16E1 JUMP JUMPDEST PUSH1 0x1 SLOAD DUP4 LT PUSH2 0x1134 JUMPI PUSH1 0x40 MLOAD PUSH3 0x461BCD PUSH1 0xE5 SHL DUP2 MSTORE PUSH1 0x4 ADD PUSH2 0x72B SWAP1 PUSH2 0x1C0A JUMP JUMPDEST PUSH2 0x2710 DUP2 GT ISZERO PUSH2 0x117C JUMPI PUSH1 0x40 MLOAD PUSH3 0x461BCD PUSH1 0xE5 SHL DUP2 MSTORE PUSH1 0x20 PUSH1 0x4 DUP3 ADD MSTORE PUSH1 0x13 PUSH1 0x24 DUP3 ADD MSTORE PUSH19 0x4150592065786365656473206D6178696D756D PUSH1 0x68 SHL PUSH1 0x44 DUP3 ADD MSTORE PUSH1 0x64 ADD PUSH2 0x72B JUMP JUMPDEST PUSH1 0x0 DUP4 DUP2 MSTORE PUSH1 0x4 PUSH1 0x20 SWAP1 DUP2 MSTORE PUSH1 0x40 SWAP2 DUP3 SWAP1 KECCAK256 PUSH1 0x6 DUP2 ADD DUP1 SLOAD PUSH1 0xFF NOT AND DUP7 ISZERO ISZERO SWAP1 DUP2 OR SWAP1 SWAP2 SSTORE PUSH1 0x3 SWAP1 SWAP2 ADD DUP5 SWAP1 SSTORE DUP3 MLOAD SWAP1 DUP2 MSTORE SWAP1 DUP2 ADD DUP4 SWAP1 MSTORE DUP5 SWAP2 PUSH32 0x1AE3E410CF35F6B4CF194BF70854CC944D025B496B9E302625B95B35C1C3A86D SWAP2 ADD PUSH1 0x40 MLOAD DUP1 SWAP2 SUB SWAP1 LOG2 POP POP POP JUMP JUMPDEST PUSH2 0x11EE PUSH2 0x169A JUMP JUMPDEST PUSH2 0x11F6 PUSH2 0x16B6 JUMP JUMPDEST PUSH1 0x1 SLOAD DUP2 LT PUSH2 0x1217 JUMPI PUSH1 0x40 MLOAD PUSH3 0x461BCD PUSH1 0xE5 SHL DUP2 MSTORE PUSH1 0x4 ADD PUSH2 0x72B SWAP1 PUSH2 0x1C0A JUMP JUMPDEST PUSH1 0x0 DUP2 DUP2 MSTORE PUSH1 0x4 PUSH1 0x20 MSTORE PUSH1 0x40 SWAP1 KECCAK256 PUSH1 0x6 DUP2 ADD SLOAD PUSH1 0xFF AND PUSH2 0x126E JUMPI PUSH1 0x40 MLOAD PUSH3 0x461BCD PUSH1 0xE5 SHL DUP2 MSTORE PUSH1 0x20 PUSH1 0x4 DUP3 ADD MSTORE PUSH1 0x12 PUSH1 0x24 DUP3 ADD MSTORE PUSH18 0x506F6F6C206973206E6F7420616374697665 PUSH1 0x70 SHL PUSH1 0x44 DUP3 ADD MSTORE PUSH1 0x64 ADD PUSH2 0x72B JUMP JUMPDEST DUP1 PUSH1 0x1 ADD SLOAD CALLVALUE LT ISZERO PUSH2 0x12BA JUMPI PUSH1 0x40 MLOAD PUSH3 0x461BCD PUSH1 0xE5 SHL DUP2 MSTORE PUSH1 0x20 PUSH1 0x4 DUP3 ADD MSTORE PUSH1 0x15 PUSH1 0x24 DUP3 ADD MSTORE PUSH21 0x10995B1BDDC81B5A5B9A5B5D5B4819195C1BDCDA5D PUSH1 0x5A SHL PUSH1 0x44 DUP3 ADD MSTORE PUSH1 0x64 ADD PUSH2 0x72B JUMP JUMPDEST PUSH1 0x2 DUP2 ADD SLOAD ISZERO PUSH2 0x133C JUMPI PUSH1 0x2 DUP2 ADD SLOAD PUSH1 0x0 DUP4 DUP2 MSTORE PUSH1 0x5 PUSH1 0x20 SWAP1 DUP2 MSTORE PUSH1 0x40 DUP1 DUP4 KECCAK256 CALLER DUP5 MSTORE SWAP1 SWAP2 MSTORE SWAP1 KECCAK256 SLOAD PUSH2 0x12EE SWAP1 CALLVALUE SWAP1 PUSH2 0x1BF7 JUMP JUMPDEST GT ISZERO PUSH2 0x133C JUMPI PUSH1 0x40 MLOAD PUSH3 0x461BCD PUSH1 0xE5 SHL DUP2 MSTORE PUSH1 0x20 PUSH1 0x4 DUP3 ADD MSTORE PUSH1 0x17 PUSH1 0x24 DUP3 ADD MSTORE PUSH32 0x45786365656473206D6178696D756D206465706F736974000000000000000000 PUSH1 0x44 DUP3 ADD MSTORE PUSH1 0x64 ADD PUSH2 0x72B JUMP JUMPDEST PUSH1 0x0 DUP3 DUP2 MSTORE PUSH1 0x5 PUSH1 0x20 SWAP1 DUP2 MSTORE PUSH1 0x40 DUP1 DUP4 KECCAK256 CALLER DUP5 MSTORE SWAP1 SWAP2 MSTORE SWAP1 KECCAK256 PUSH1 0x3 DUP2 ADD SLOAD PUSH1 0xFF AND PUSH2 0x1388 JUMPI PUSH1 0x3 DUP2 ADD DUP1 SLOAD PUSH1 0xFF NOT AND PUSH1 0x1 OR SWAP1 SSTORE PUSH1 0x5 DUP3 ADD DUP1 SLOAD SWAP1 PUSH1 0x0 PUSH2 0x1382 DUP4 PUSH2 0x1DAB JUMP JUMPDEST SWAP2 SWAP1 POP SSTORE POP JUMPDEST CALLVALUE DUP2 PUSH1 0x0 ADD PUSH1 0x0 DUP3 DUP3 SLOAD PUSH2 0x139C SWAP2 SWAP1 PUSH2 0x1BF7 JUMP JUMPDEST SWAP1 SWAP2 SSTORE POP POP TIMESTAMP PUSH1 0x1 DUP3 ADD SSTORE PUSH1 0x4 DUP3 ADD DUP1 SLOAD CALLVALUE SWAP2 SWAP1 PUSH1 0x0 SWAP1 PUSH2 0x13BE SWAP1 DUP5 SWAP1 PUSH2 0x1BF7 JUMP JUMPDEST SWAP3 POP POP DUP2 SWAP1 SSTORE POP CALLVALUE PUSH1 0x3 PUSH1 0x0 DUP3 DUP3 SLOAD PUSH2 0x13D7 SWAP2 SWAP1 PUSH2 0x1BF7 JUMP JUMPDEST SWAP1 SWAP2 SSTORE POP POP PUSH1 0x40 MLOAD CALLVALUE DUP2 MSTORE DUP4 SWAP1 CALLER SWAP1 PUSH32 0x73A19DD210F1A7F902193214C0EE91DD35EE5B4D920CBA8D519ECA65A7B488CA SWAP1 PUSH1 0x20 ADD PUSH1 0x40 MLOAD DUP1 SWAP2 SUB SWAP1 LOG3 PUSH2 0x141D CALLER CALLVALUE PUSH2 0x17F6 JUMP JUMPDEST POP POP PUSH2 0x8B1 PUSH1 0x1 PUSH1 0x0 DUP1 MLOAD PUSH1 0x20 PUSH2 0x1E37 DUP4 CODECOPY DUP2 MLOAD SWAP2 MSTORE SSTORE JUMP JUMPDEST PUSH1 0x0 DUP2 DUP2 MSTORE PUSH1 0x5 PUSH1 0x20 SWAP1 DUP2 MSTORE PUSH1 0x40 DUP1 DUP4 KECCAK256 PUSH1 0x1 PUSH1 0x1 PUSH1 0xA0 SHL SUB DUP7 AND DUP5 MSTORE SWAP1 SWAP2 MSTORE SWAP1 KECCAK256 SLOAD JUMPDEST SWAP3 SWAP2 POP POP JUMP JUMPDEST PUSH1 0x0 DUP3 DUP2 MSTORE PUSH1 0x5 PUSH1 0x20 SWAP1 DUP2 MSTORE PUSH1 0x40 DUP1 DUP4 KECCAK256 PUSH1 0x1 PUSH1 0x1 PUSH1 0xA0 SHL SUB DUP6 AND DUP5 MSTORE SWAP1 SWAP2 MSTORE DUP2 KECCAK256 PUSH1 0x3 DUP2 ADD SLOAD PUSH1 0xFF AND ISZERO DUP1 PUSH2 0x1495 JUMPI POP DUP1 SLOAD ISZERO JUMPDEST ISZERO PUSH2 0x14A4 JUMPI PUSH1 0x0 SWAP2 POP POP PUSH2 0x145A JUMP JUMPDEST PUSH1 0x0 DUP2 PUSH1 0x1 ADD SLOAD TIMESTAMP PUSH2 0x14B6 SWAP2 SWAP1 PUSH2 0x1C37 JUMP JUMPDEST SWAP1 POP PUSH1 0x0 PUSH2 0x14CA PUSH2 0x2710 PUSH4 0x1E13380 PUSH2 0x1DFD JUMP JUMPDEST PUSH1 0x0 DUP8 DUP2 MSTORE PUSH1 0x4 PUSH1 0x20 MSTORE PUSH1 0x40 SWAP1 KECCAK256 PUSH1 0x3 ADD SLOAD DUP5 SLOAD DUP5 SWAP2 PUSH2 0x14E9 SWAP2 PUSH2 0x1DFD JUMP JUMPDEST PUSH2 0x14F3 SWAP2 SWAP1 PUSH2 0x1DFD JUMP JUMPDEST PUSH2 0x14FD SWAP2 SWAP1 PUSH2 0x1E14 JUMP JUMPDEST SWAP7 SWAP6 POP POP POP POP POP POP JUMP JUMPDEST PUSH2 0x150F PUSH2 0x16E1 JUMP JUMPDEST SELFBALANCE DUP1 PUSH2 0x154A JUMPI PUSH1 0x40 MLOAD PUSH3 0x461BCD PUSH1 0xE5 SHL DUP2 MSTORE PUSH1 0x20 PUSH1 0x4 DUP3 ADD MSTORE PUSH1 0xA PUSH1 0x24 DUP3 ADD MSTORE PUSH10 0x4E6F2062616C616E6365 PUSH1 0xB0 SHL PUSH1 0x44 DUP3 ADD MSTORE PUSH1 0x64 ADD PUSH2 0x72B JUMP JUMPDEST PUSH1 0x0 DUP1 SLOAD PUSH1 0x40 MLOAD PUSH1 0x1 PUSH1 0x1 PUSH1 0xA0 SHL SUB SWAP1 SWAP2 AND SWAP1 DUP4 SWAP1 DUP4 DUP2 DUP2 DUP2 DUP6 DUP8 GAS CALL SWAP3 POP POP POP RETURNDATASIZE DUP1 PUSH1 0x0 DUP2 EQ PUSH2 0x1597 JUMPI PUSH1 0x40 MLOAD SWAP2 POP PUSH1 0x1F NOT PUSH1 0x3F RETURNDATASIZE ADD AND DUP3 ADD PUSH1 0x40 MSTORE RETURNDATASIZE DUP3 MSTORE RETURNDATASIZE PUSH1 0x0 PUSH1 0x20 DUP5 ADD RETURNDATACOPY PUSH2 0x159C JUMP JUMPDEST PUSH1 0x60 SWAP2 POP JUMPDEST POP POP SWAP1 POP DUP1 PUSH2 0xDA2 JUMPI PUSH1 0x40 MLOAD PUSH3 0x461BCD PUSH1 0xE5 SHL DUP2 MSTORE PUSH1 0x20 PUSH1 0x4 DUP3 ADD MSTORE PUSH1 0xF PUSH1 0x24 DUP3 ADD MSTORE PUSH15 0x151C985B9CD9995C8819985A5B1959 PUSH1 0x8A SHL PUSH1 0x44 DUP3 ADD MSTORE PUSH1 0x64 ADD PUSH2 0x72B JUMP JUMPDEST PUSH1 0x7 PUSH1 0x20 MSTORE DUP2 PUSH1 0x0 MSTORE PUSH1 0x40 PUSH1 0x0 KECCAK256 DUP2 DUP2 SLOAD DUP2 LT PUSH2 0x15FB JUMPI PUSH1 0x0 DUP1 REVERT JUMPDEST PUSH1 0x0 SWAP2 DUP3 MSTORE PUSH1 0x20 SWAP1 SWAP2 KECCAK256 ADD SLOAD PUSH1 0x1 PUSH1 0x1 PUSH1 0xA0 SHL SUB AND SWAP2 POP DUP3 SWAP1 POP JUMP JUMPDEST PUSH2 0x161F PUSH2 0x16E1 JUMP JUMPDEST PUSH1 0x1 PUSH1 0x1 PUSH1 0xA0 SHL SUB DUP2 AND PUSH2 0x1649 JUMPI PUSH1 0x40 MLOAD PUSH4 0x1E4FBDF7 PUSH1 0xE0 SHL DUP2 MSTORE PUSH1 0x0 PUSH1 0x4 DUP3 ADD MSTORE PUSH1 0x24 ADD PUSH2 0x72B JUMP JUMPDEST PUSH2 0x8B1 DUP2 PUSH2 0x1763 JUMP JUMPDEST PUSH2 0x165A PUSH2 0x16E1 JUMP JUMPDEST PUSH1 0x0 CALLVALUE GT PUSH2 0xB45 JUMPI PUSH1 0x40 MLOAD PUSH3 0x461BCD PUSH1 0xE5 SHL DUP2 MSTORE PUSH1 0x20 PUSH1 0x4 DUP3 ADD MSTORE PUSH1 0xD PUSH1 0x24 DUP3 ADD MSTORE PUSH13 0x26BAB9BA1039B2B73210212721 PUSH1 0x99 SHL PUSH1 0x44 DUP3 ADD MSTORE PUSH1 0x64 ADD PUSH2 0x72B JUMP JUMPDEST PUSH2 0x16A2 PUSH2 0x1914 JUMP JUMPDEST PUSH1 0x2 PUSH1 0x0 DUP1 MLOAD PUSH1 0x20 PUSH2 0x1E37 DUP4 CODECOPY DUP2 MLOAD SWAP2 MSTORE SSTORE JUMP JUMPDEST PUSH1 0x0 SLOAD PUSH1 0x1 PUSH1 0xA0 SHL SWAP1 DIV PUSH1 0xFF AND ISZERO PUSH2 0xB45 JUMPI PUSH1 0x40 MLOAD PUSH4 0xD93C0665 PUSH1 0xE0 SHL DUP2 MSTORE PUSH1 0x4 ADD PUSH1 0x40 MLOAD DUP1 SWAP2 SUB SWAP1 REVERT JUMPDEST PUSH1 0x0 SLOAD PUSH1 0x1 PUSH1 0x1 PUSH1 0xA0 SHL SUB AND CALLER EQ PUSH2 0xB45 JUMPI PUSH1 0x40 MLOAD PUSH4 0x118CDAA7 PUSH1 0xE0 SHL DUP2 MSTORE CALLER PUSH1 0x4 DUP3 ADD MSTORE PUSH1 0x24 ADD PUSH2 0x72B JUMP JUMPDEST PUSH2 0x1716 PUSH2 0x1944 JUMP JUMPDEST PUSH1 0x0 DUP1 SLOAD PUSH1 0xFF PUSH1 0xA0 SHL NOT AND SWAP1 SSTORE PUSH32 0x5DB9EE0A495BF2E6FF9C91A7834C1BA4FDD244A5E8AA4E537BD38AEAE4B073AA CALLER JUMPDEST PUSH1 0x40 MLOAD PUSH1 0x1 PUSH1 0x1 PUSH1 0xA0 SHL SUB SWAP1 SWAP2 AND DUP2 MSTORE PUSH1 0x20 ADD PUSH1 0x40 MLOAD DUP1 SWAP2 SUB SWAP1 LOG1 JUMP JUMPDEST PUSH1 0x0 DUP1 SLOAD PUSH1 0x1 PUSH1 0x1 PUSH1 0xA0 SHL SUB DUP4 DUP2 AND PUSH1 0x1 PUSH1 0x1 PUSH1 0xA0 SHL SUB NOT DUP4 AND DUP2 OR DUP5 SSTORE PUSH1 0x40 MLOAD SWAP2 SWAP1 SWAP3 AND SWAP3 DUP4 SWAP2 PUSH32 0x8BE0079C531659141344CD1FD0A4F28419497F9722A3DAAFE3B4186F6B6457E0 SWAP2 SWAP1 LOG3 POP POP JUMP JUMPDEST PUSH2 0x17BB PUSH2 0x16B6 JUMP JUMPDEST PUSH1 0x0 DUP1 SLOAD PUSH1 0xFF PUSH1 0xA0 SHL NOT AND PUSH1 0x1 PUSH1 0xA0 SHL OR SWAP1 SSTORE PUSH32 0x62E78CEA01BEE320CD4E420270B5EA74000D11B0C9F74754EBDBFC544B05A258 PUSH2 0x1746 CALLER SWAP1 JUMP JUMPDEST PUSH1 0x1 PUSH1 0x1 PUSH1 0xA0 SHL SUB DUP3 AND PUSH1 0x0 SWAP1 DUP2 MSTORE PUSH1 0x6 PUSH1 0x20 MSTORE PUSH1 0x40 SWAP1 KECCAK256 PUSH1 0x2 DUP2 ADD SLOAD PUSH1 0xFF AND PUSH2 0x181F JUMPI POP POP POP JUMP JUMPDEST PUSH1 0x0 PUSH2 0x2710 PUSH1 0x2 SLOAD DUP5 PUSH2 0x1832 SWAP2 SWAP1 PUSH2 0x1DFD JUMP JUMPDEST PUSH2 0x183C SWAP2 SWAP1 PUSH2 0x1E14 JUMP JUMPDEST SWAP1 POP DUP1 ISZERO DUP1 PUSH2 0x184A JUMPI POP DUP1 SELFBALANCE LT JUMPDEST ISZERO PUSH2 0x1855 JUMPI POP POP POP POP JUMP JUMPDEST DUP1 DUP3 PUSH1 0x1 ADD PUSH1 0x0 DUP3 DUP3 SLOAD PUSH2 0x1869 SWAP2 SWAP1 PUSH2 0x1BF7 JUMP JUMPDEST SWAP1 SWAP2 SSTORE POP POP DUP2 SLOAD PUSH1 0x40 MLOAD PUSH1 0x0 SWAP2 PUSH1 0x1 PUSH1 0x1 PUSH1 0xA0 SHL SUB AND SWAP1 DUP4 SWAP1 DUP4 DUP2 DUP2 DUP2 DUP6 DUP8 GAS CALL SWAP3 POP POP POP RETURNDATASIZE DUP1 PUSH1 0x0 DUP2 EQ PUSH2 0x18BA JUMPI PUSH1 0x40 MLOAD SWAP2 POP PUSH1 0x1F NOT PUSH1 0x3F RETURNDATASIZE ADD AND DUP3 ADD PUSH1 0x40 MSTORE RETURNDATASIZE DUP3 MSTORE RETURNDATASIZE PUSH1 0x0 PUSH1 0x20 DUP5 ADD RETURNDATACOPY PUSH2 0x18BF JUMP JUMPDEST PUSH1 0x60 SWAP2 POP JUMPDEST POP POP SWAP1 POP DUP1 ISZERO PUSH2 0x190D JUMPI DUP3 SLOAD PUSH1 0x40 MLOAD DUP4 DUP2 MSTORE PUSH1 0x1 PUSH1 0x1 PUSH1 0xA0 SHL SUB DUP8 DUP2 AND SWAP3 AND SWAP1 PUSH32 0xB2DEE5F49E7A09A5D7C95CD4DD5DC6410EEA65D4E14519D6D3A6E14C8CF0E0E9 SWAP1 PUSH1 0x20 ADD PUSH1 0x40 MLOAD DUP1 SWAP2 SUB SWAP1 LOG3 JUMPDEST POP POP POP POP POP JUMP JUMPDEST PUSH1 0x0 DUP1 MLOAD PUSH1 0x20 PUSH2 0x1E37 DUP4 CODECOPY DUP2 MLOAD SWAP2 MSTORE SLOAD PUSH1 0x2 SUB PUSH2 0xB45 JUMPI PUSH1 0x40 MLOAD PUSH4 0x3EE5AEB5 PUSH1 0xE0 SHL DUP2 MSTORE PUSH1 0x4 ADD PUSH1 0x40 MLOAD DUP1 SWAP2 SUB SWAP1 REVERT JUMPDEST PUSH1 0x0 SLOAD PUSH1 0x1 PUSH1 0xA0 SHL SWAP1 DIV PUSH1 0xFF AND PUSH2 0xB45 JUMPI PUSH1 0x40 MLOAD PUSH4 0x8DFC202B PUSH1 0xE0 SHL DUP2 MSTORE PUSH1 0x4 ADD PUSH1 0x40 MLOAD DUP1 SWAP2 SUB SWAP1 REVERT JUMPDEST DUP1 CALLDATALOAD PUSH1 0x1 PUSH1 0x1 PUSH1 0xA0 SHL SUB DUP2 AND DUP2 EQ PUSH2 0x1985 JUMPI PUSH1 0x0 DUP1 REVERT JUMPDEST SWAP2 SWAP1 POP JUMP JUMPDEST PUSH1 0x0 DUP1 PUSH1 0x40 DUP4 DUP6 SUB SLT ISZERO PUSH2 0x199D JUMPI PUSH1 0x0 DUP1 REVERT JUMPDEST PUSH2 0x19A6 DUP4 PUSH2 0x196E JUMP JUMPDEST SWAP5 PUSH1 0x20 SWAP4 SWAP1 SWAP4 ADD CALLDATALOAD SWAP4 POP POP POP JUMP JUMPDEST PUSH1 0x0 PUSH1 0x20 DUP3 DUP5 SUB SLT ISZERO PUSH2 0x19C6 JUMPI PUSH1 0x0 DUP1 REVERT JUMPDEST POP CALLDATALOAD SWAP2 SWAP1 POP JUMP JUMPDEST PUSH1 0x0 PUSH1 0x20 DUP3 DUP5 SUB SLT ISZERO PUSH2 0x19DF JUMPI PUSH1 0x0 DUP1 REVERT JUMPDEST PUSH2 0x19E8 DUP3 PUSH2 0x196E JUMP JUMPDEST SWAP4 SWAP3 POP POP POP JUMP JUMPDEST PUSH1 0x20 DUP1 DUP3 MSTORE DUP3 MLOAD DUP3 DUP3 ADD DUP2 SWAP1 MSTORE PUSH1 0x0 SWAP2 SWAP1 DUP5 DUP3 ADD SWAP1 PUSH1 0x40 DUP6 ADD SWAP1 DUP5 JUMPDEST DUP2 DUP2 LT ISZERO PUSH2 0x1A30 JUMPI DUP4 MLOAD PUSH1 0x1 PUSH1 0x1 PUSH1 0xA0 SHL SUB AND DUP4 MSTORE SWAP3 DUP5 ADD SWAP3 SWAP2 DUP5 ADD SWAP2 PUSH1 0x1 ADD PUSH2 0x1A0B JUMP JUMPDEST POP SWAP1 SWAP7 SWAP6 POP POP POP POP POP POP JUMP JUMPDEST PUSH1 0x0 DUP1 PUSH1 0x40 DUP4 DUP6 SUB SLT ISZERO PUSH2 0x1A4F JUMPI PUSH1 0x0 DUP1 REVERT JUMPDEST POP POP DUP1 CALLDATALOAD SWAP3 PUSH1 0x20 SWAP1 SWAP2 ADD CALLDATALOAD SWAP2 POP JUMP JUMPDEST PUSH1 0x0 DUP1 PUSH1 0x0 DUP1 PUSH1 0x0 PUSH1 0x80 DUP7 DUP9 SUB SLT ISZERO PUSH2 0x1A76 JUMPI PUSH1 0x0 DUP1 REVERT JUMPDEST DUP6 CALLDATALOAD PUSH8 0xFFFFFFFFFFFFFFFF DUP1 DUP3 GT ISZERO PUSH2 0x1A8E JUMPI PUSH1 0x0 DUP1 REVERT JUMPDEST DUP2 DUP9 ADD SWAP2 POP DUP9 PUSH1 0x1F DUP4 ADD SLT PUSH2 0x1AA2 JUMPI PUSH1 0x0 DUP1 REVERT JUMPDEST DUP2 CALLDATALOAD DUP2 DUP2 GT ISZERO PUSH2 0x1AB1 JUMPI PUSH1 0x0 DUP1 REVERT JUMPDEST DUP10 PUSH1 0x20 DUP3 DUP6 ADD ADD GT ISZERO PUSH2 0x1AC3 JUMPI PUSH1 0x0 DUP1 REVERT JUMPDEST PUSH1 0x20 SWAP3 DUP4 ADD SWAP11 SWAP1 SWAP10 POP SWAP2 DUP9 ADD CALLDATALOAD SWAP8 PUSH1 0x40 DUP2 ADD CALLDATALOAD SWAP8 POP PUSH1 0x60 ADD CALLDATALOAD SWAP6 POP SWAP1 SWAP4 POP POP POP POP JUMP JUMPDEST PUSH1 0x0 PUSH2 0x100 DUP1 DUP4 MSTORE DUP11 MLOAD DUP1 DUP3 DUP6 ADD MSTORE PUSH1 0x0 SWAP2 POP JUMPDEST DUP1 DUP3 LT ISZERO PUSH2 0x1B1C JUMPI PUSH1 0x20 DUP3 DUP14 ADD ADD MLOAD PUSH2 0x120 DUP4 DUP7 ADD ADD MSTORE PUSH1 0x20 DUP3 ADD SWAP2 POP PUSH2 0x1AFA JUMP JUMPDEST PUSH2 0x120 SWAP2 POP PUSH1 0x0 DUP3 DUP3 DUP7 ADD ADD MSTORE DUP2 PUSH1 0x1F NOT PUSH1 0x1F DUP4 ADD AND DUP6 ADD ADD SWAP3 POP POP POP DUP9 PUSH1 0x20 DUP4 ADD MSTORE DUP8 PUSH1 0x40 DUP4 ADD MSTORE DUP7 PUSH1 0x60 DUP4 ADD MSTORE DUP6 PUSH1 0x80 DUP4 ADD MSTORE DUP5 PUSH1 0xA0 DUP4 ADD MSTORE PUSH2 0x1B65 PUSH1 0xC0 DUP4 ADD DUP6 ISZERO ISZERO SWAP1 MSTORE JUMP JUMPDEST DUP3 PUSH1 0xE0 DUP4 ADD MSTORE SWAP10 SWAP9 POP POP POP POP POP POP POP POP POP JUMP JUMPDEST PUSH1 0x0 DUP1 PUSH1 0x0 PUSH1 0x60 DUP5 DUP7 SUB SLT ISZERO PUSH2 0x1B8D JUMPI PUSH1 0x0 DUP1 REVERT JUMPDEST DUP4 CALLDATALOAD SWAP3 POP PUSH1 0x20 DUP5 ADD CALLDATALOAD DUP1 ISZERO ISZERO DUP2 EQ PUSH2 0x1BA4 JUMPI PUSH1 0x0 DUP1 REVERT JUMPDEST SWAP3 SWAP6 SWAP3 SWAP5 POP POP POP PUSH1 0x40 SWAP2 SWAP1 SWAP2 ADD CALLDATALOAD SWAP1 JUMP JUMPDEST PUSH1 0x0 DUP1 PUSH1 0x40 DUP4 DUP6 SUB SLT ISZERO PUSH2 0x1BC8 JUMPI PUSH1 0x0 DUP1 REVERT JUMPDEST DUP3 CALLDATALOAD SWAP2 POP PUSH2 0x1BD8 PUSH1 0x20 DUP5 ADD PUSH2 0x196E JUMP JUMPDEST SWAP1 POP SWAP3 POP SWAP3 SWAP1 POP JUMP JUMPDEST PUSH4 0x4E487B71 PUSH1 0xE0 SHL PUSH1 0x0 MSTORE PUSH1 0x11 PUSH1 0x4 MSTORE PUSH1 0x24 PUSH1 0x0 REVERT JUMPDEST DUP1 DUP3 ADD DUP1 DUP3 GT ISZERO PUSH2 0x145A JUMPI PUSH2 0x145A PUSH2 0x1BE1 JUMP JUMPDEST PUSH1 0x20 DUP1 DUP3 MSTORE PUSH1 0x13 SWAP1 DUP3 ADD MSTORE PUSH19 0x141BDBDB08191BD95CC81B9BDD08195E1A5CDD PUSH1 0x6A SHL PUSH1 0x40 DUP3 ADD MSTORE PUSH1 0x60 ADD SWAP1 JUMP JUMPDEST DUP2 DUP2 SUB DUP2 DUP2 GT ISZERO PUSH2 0x145A JUMPI PUSH2 0x145A PUSH2 0x1BE1 JUMP JUMPDEST PUSH4 0x4E487B71 PUSH1 0xE0 SHL PUSH1 0x0 MSTORE PUSH1 0x41 PUSH1 0x4 MSTORE PUSH1 0x24 PUSH1 0x0 REVERT JUMPDEST PUSH1 0x1 DUP2 DUP2 SHR SWAP1 DUP3 AND DUP1 PUSH2 0x1C74 JUMPI PUSH1 0x7F DUP3 AND SWAP2 POP JUMPDEST PUSH1 0x20 DUP3 LT DUP2 SUB PUSH2 0x1C94 JUMPI PUSH4 0x4E487B71 PUSH1 0xE0 SHL PUSH1 0x0 MSTORE PUSH1 0x22 PUSH1 0x4 MSTORE PUSH1 0x24 PUSH1 0x0 REVERT JUMPDEST POP SWAP2 SWAP1 POP JUMP JUMPDEST PUSH1 0x1F DUP3 GT ISZERO PUSH2 0x1CE6 JUMPI PUSH1 0x0 DUP2 PUSH1 0x0 MSTORE PUSH1 0x20 PUSH1 0x0 KECCAK256 PUSH1 0x1F DUP6 ADD PUSH1 0x5 SHR DUP2 ADD PUSH1 0x20 DUP7 LT ISZERO PUSH2 0x1CC3 JUMPI POP DUP1 JUMPDEST PUSH1 0x1F DUP6 ADD PUSH1 0x5 SHR DUP3 ADD SWAP2 POP JUMPDEST DUP2 DUP2 LT ISZERO PUSH2 0x1CE2 JUMPI DUP3 DUP2 SSTORE PUSH1 0x1 ADD PUSH2 0x1CCF JUMP JUMPDEST POP POP POP JUMPDEST POP POP POP JUMP JUMPDEST DUP2 MLOAD PUSH8 0xFFFFFFFFFFFFFFFF DUP2 GT ISZERO PUSH2 0x1D05 JUMPI PUSH2 0x1D05 PUSH2 0x1C4A JUMP JUMPDEST PUSH2 0x1D19 DUP2 PUSH2 0x1D13 DUP5 SLOAD PUSH2 0x1C60 JUMP JUMPDEST DUP5 PUSH2 0x1C9A JUMP JUMPDEST PUSH1 0x20 DUP1 PUSH1 0x1F DUP4 GT PUSH1 0x1 DUP2 EQ PUSH2 0x1D4E JUMPI PUSH1 0x0 DUP5 ISZERO PUSH2 0x1D36 JUMPI POP DUP6 DUP4 ADD MLOAD JUMPDEST PUSH1 0x0 NOT PUSH1 0x3 DUP7 SWAP1 SHL SHR NOT AND PUSH1 0x1 DUP6 SWAP1 SHL OR DUP6 SSTORE PUSH2 0x1CE2 JUMP JUMPDEST PUSH1 0x0 DUP6 DUP2 MSTORE PUSH1 0x20 DUP2 KECCAK256 PUSH1 0x1F NOT DUP7 AND SWAP2 JUMPDEST DUP3 DUP2 LT ISZERO PUSH2 0x1D7D JUMPI DUP9 DUP7 ADD MLOAD DUP3 SSTORE SWAP5 DUP5 ADD SWAP5 PUSH1 0x1 SWAP1 SWAP2 ADD SWAP1 DUP5 ADD PUSH2 0x1D5E JUMP JUMPDEST POP DUP6 DUP3 LT ISZERO PUSH2 0x1D9B JUMPI DUP8 DUP6 ADD MLOAD PUSH1 0x0 NOT PUSH1 0x3 DUP9 SWAP1 SHL PUSH1 0xF8 AND SHR NOT AND DUP2 SSTORE JUMPDEST POP POP POP POP POP PUSH1 0x1 SWAP1 DUP2 SHL ADD SWAP1 SSTORE POP JUMP JUMPDEST PUSH1 0x0 PUSH1 0x1 DUP3 ADD PUSH2 0x1DBD JUMPI PUSH2 0x1DBD PUSH2 0x1BE1 JUMP JUMPDEST POP PUSH1 0x1 ADD SWAP1 JUMP JUMPDEST PUSH1 0x40 DUP2 MSTORE DUP3 PUSH1 0x40 DUP3 ADD MSTORE DUP3 DUP5 PUSH1 0x60 DUP4 ADD CALLDATACOPY PUSH1 0x0 PUSH1 0x60 DUP5 DUP4 ADD ADD MSTORE PUSH1 0x0 PUSH1 0x60 PUSH1 0x1F NOT PUSH1 0x1F DUP7 ADD AND DUP4 ADD ADD SWAP1 POP DUP3 PUSH1 0x20 DUP4 ADD MSTORE SWAP5 SWAP4 POP POP POP POP JUMP JUMPDEST DUP1 DUP3 MUL DUP2 ISZERO DUP3 DUP3 DIV DUP5 EQ OR PUSH2 0x145A JUMPI PUSH2 0x145A PUSH2 0x1BE1 JUMP JUMPDEST PUSH1 0x0 DUP3 PUSH2 0x1E31 JUMPI PUSH4 0x4E487B71 PUSH1 0xE0 SHL PUSH1 0x0 MSTORE PUSH1 0x12 PUSH1 0x4 MSTORE PUSH1 0x24 PUSH1 0x0 REVERT JUMPDEST POP DIV SWAP1 JUMP INVALID SWAP12 PUSH24 0x9B17422D0DF92223018B32B4D1FA46E071723D6817E2486D STOP EXTCODESIZE 0xEC 0xC5 PUSH0 STOP LOG2 PUSH5 0x6970667358 0x22 SLT KECCAK256 ADD 0xA8 0xED PUSH6 0x4430D220360A AND 0xF SUB 0xC4 PUSH29 0xF132B9F22786F043933AF4ED0C0821B03D64736F6C6343000818003300 "},"methodIdentifiers":{"MAX_BPS()":"fd967f47","claimRewards(uint256)":"0962ef79","createPool(string,uint256,uint256,uint256)":"a208298b","deposit(uint256)":"b6b55f25","emergencyWithdraw()":"db2e21bc","fundRewards()":"ff18bf0b","getPoolInfo(uint256)":"2f380b35","getReferralInfo(address)":"21874ae2","getReferredUsers(address)":"32e5b6d8","getUserStake(address,uint256)":"cec695fa","getUserStakeInfo(address,uint256)":"00ae5faa","owner()":"8da5cb5b","pause()":"8456cb59","paused()":"5c975abb","pendingRewards(uint256,address)":"d18df53c","poolCount()":"f525cb68","pools(uint256)":"ac4afa38","referralBonusBps()":"195ad3d5","referrals(address)":"9ca423b3","referredUsers(address,uint256)":"e92820e6","registerReferral(address)":"209ab711","renounceOwnership()":"715018a6","setReferralBonus(uint256)":"9a037aa0","totalValueLocked()":"ec18154e","transferOwnership(address)":"f2fde38b","unpause()":"3f4ba83a","updatePool(uint256,bool,uint256)":"b1d24443","userStakes(uint256,address)":"e8990524","withdraw(uint256,uint256)":"441a3e70"}}}}}