{
  "_format": "hh-sol-artifact-1",
  "contractName": "CLBToken",
  "sourceName": "solidity/CLBToken.sol",
  "abi": [
    {
      "inputs": [
        {
          "internalType": "string",
          "name": "name_",
          "type": "string"
        },
        {
          "internalType": "string",
          "name": "symbol_",
          "type": "string"
        },
        {
          "internalType": "uint8",
          "name": "decimals_",
          "type": "uint8"
        },
        {
          "internalType": "uint256",
          "name": "initialSupply_",
          "type": "uint256"
        }
      ],
      "stateMutability": "nonpayable",
      "type": "constructor"
    },
    {
      "inputs": [
        {
          "internalType": "address",
          "name": "spender",
          "type": "address"
        },
        {
          "internalType": "uint256",
          "name": "allowance",
          "type": "uint256"
        },
        {
          "internalType": "uint256",
          "name": "needed",
          "type": "uint256"
        }
      ],
      "name": "ERC20InsufficientAllowance",
      "type": "error"
    },
    {
      "inputs": [
        {
          "internalType": "address",
          "name": "sender",
          "type": "address"
        },
        {
          "internalType": "uint256",
          "name": "balance",
          "type": "uint256"
        },
        {
          "internalType": "uint256",
          "name": "needed",
          "type": "uint256"
        }
      ],
      "name": "ERC20InsufficientBalance",
      "type": "error"
    },
    {
      "inputs": [
        {
          "internalType": "address",
          "name": "approver",
          "type": "address"
        }
      ],
      "name": "ERC20InvalidApprover",
      "type": "error"
    },
    {
      "inputs": [
        {
          "internalType": "address",
          "name": "receiver",
          "type": "address"
        }
      ],
      "name": "ERC20InvalidReceiver",
      "type": "error"
    },
    {
      "inputs": [
        {
          "internalType": "address",
          "name": "sender",
          "type": "address"
        }
      ],
      "name": "ERC20InvalidSender",
      "type": "error"
    },
    {
      "inputs": [
        {
          "internalType": "address",
          "name": "spender",
          "type": "address"
        }
      ],
      "name": "ERC20InvalidSpender",
      "type": "error"
    },
    {
      "inputs": [
        {
          "internalType": "address",
          "name": "owner",
          "type": "address"
        }
      ],
      "name": "OwnableInvalidOwner",
      "type": "error"
    },
    {
      "inputs": [
        {
          "internalType": "address",
          "name": "account",
          "type": "address"
        }
      ],
      "name": "OwnableUnauthorizedAccount",
      "type": "error"
    },
    {
      "anonymous": false,
      "inputs": [
        {
          "indexed": true,
          "internalType": "address",
          "name": "owner",
          "type": "address"
        },
        {
          "indexed": true,
          "internalType": "address",
          "name": "spender",
          "type": "address"
        },
        {
          "indexed": false,
          "internalType": "uint256",
          "name": "value",
          "type": "uint256"
        }
      ],
      "name": "Approval",
      "type": "event"
    },
    {
      "anonymous": false,
      "inputs": [
        {
          "indexed": true,
          "internalType": "address",
          "name": "account",
          "type": "address"
        }
      ],
      "name": "MinterAdded",
      "type": "event"
    },
    {
      "anonymous": false,
      "inputs": [
        {
          "indexed": true,
          "internalType": "address",
          "name": "account",
          "type": "address"
        }
      ],
      "name": "MinterRemoved",
      "type": "event"
    },
    {
      "anonymous": false,
      "inputs": [
        {
          "indexed": true,
          "internalType": "address",
          "name": "previousOwner",
          "type": "address"
        },
        {
          "indexed": true,
          "internalType": "address",
          "name": "newOwner",
          "type": "address"
        }
      ],
      "name": "OwnershipTransferred",
      "type": "event"
    },
    {
      "anonymous": false,
      "inputs": [
        {
          "indexed": true,
          "internalType": "address",
          "name": "from",
          "type": "address"
        },
        {
          "indexed": false,
          "internalType": "uint256",
          "name": "amount",
          "type": "uint256"
        },
        {
          "indexed": false,
          "internalType": "string",
          "name": "reason",
          "type": "string"
        }
      ],
      "name": "TokensBurned",
      "type": "event"
    },
    {
      "anonymous": false,
      "inputs": [
        {
          "indexed": true,
          "internalType": "address",
          "name": "to",
          "type": "address"
        },
        {
          "indexed": false,
          "internalType": "uint256",
          "name": "amount",
          "type": "uint256"
        },
        {
          "indexed": false,
          "internalType": "string",
          "name": "reason",
          "type": "string"
        }
      ],
      "name": "TokensMinted",
      "type": "event"
    },
    {
      "anonymous": false,
      "inputs": [
        {
          "indexed": true,
          "internalType": "address",
          "name": "from",
          "type": "address"
        },
        {
          "indexed": true,
          "internalType": "address",
          "name": "to",
          "type": "address"
        },
        {
          "indexed": false,
          "internalType": "uint256",
          "name": "value",
          "type": "uint256"
        }
      ],
      "name": "Transfer",
      "type": "event"
    },
    {
      "inputs": [
        {
          "internalType": "address",
          "name": "account",
          "type": "address"
        }
      ],
      "name": "addMinter",
      "outputs": [],
      "stateMutability": "nonpayable",
      "type": "function"
    },
    {
      "inputs": [
        {
          "internalType": "address",
          "name": "owner",
          "type": "address"
        },
        {
          "internalType": "address",
          "name": "spender",
          "type": "address"
        }
      ],
      "name": "allowance",
      "outputs": [
        {
          "internalType": "uint256",
          "name": "",
          "type": "uint256"
        }
      ],
      "stateMutability": "view",
      "type": "function"
    },
    {
      "inputs": [
        {
          "internalType": "address",
          "name": "spender",
          "type": "address"
        },
        {
          "internalType": "uint256",
          "name": "value",
          "type": "uint256"
        }
      ],
      "name": "approve",
      "outputs": [
        {
          "internalType": "bool",
          "name": "",
          "type": "bool"
        }
      ],
      "stateMutability": "nonpayable",
      "type": "function"
    },
    {
      "inputs": [
        {
          "internalType": "address",
          "name": "account",
          "type": "address"
        }
      ],
      "name": "balanceOf",
      "outputs": [
        {
          "internalType": "uint256",
          "name": "",
          "type": "uint256"
        }
      ],
      "stateMutability": "view",
      "type": "function"
    },
    {
      "inputs": [
        {
          "internalType": "uint256",
          "name": "value",
          "type": "uint256"
        }
      ],
      "name": "burn",
      "outputs": [],
      "stateMutability": "nonpayable",
      "type": "function"
    },
    {
      "inputs": [
        {
          "internalType": "address",
          "name": "account",
          "type": "address"
        },
        {
          "internalType": "uint256",
          "name": "amount",
          "type": "uint256"
        }
      ],
      "name": "burnFrom",
      "outputs": [],
      "stateMutability": "nonpayable",
      "type": "function"
    },
    {
      "inputs": [
        {
          "internalType": "uint256",
          "name": "amount",
          "type": "uint256"
        },
        {
          "internalType": "string",
          "name": "reason",
          "type": "string"
        }
      ],
      "name": "burnWithReason",
      "outputs": [],
      "stateMutability": "nonpayable",
      "type": "function"
    },
    {
      "inputs": [],
      "name": "decimals",
      "outputs": [
        {
          "internalType": "uint8",
          "name": "",
          "type": "uint8"
        }
      ],
      "stateMutability": "view",
      "type": "function"
    },
    {
      "inputs": [
        {
          "internalType": "address",
          "name": "to",
          "type": "address"
        },
        {
          "internalType": "uint256",
          "name": "amount",
          "type": "uint256"
        }
      ],
      "name": "mint",
      "outputs": [],
      "stateMutability": "nonpayable",
      "type": "function"
    },
    {
      "inputs": [
        {
          "internalType": "address",
          "name": "to",
          "type": "address"
        },
        {
          "internalType": "uint256",
          "name": "amount",
          "type": "uint256"
        },
        {
          "internalType": "string",
          "name": "reason",
          "type": "string"
        }
      ],
      "name": "mintWithReason",
      "outputs": [],
      "stateMutability": "nonpayable",
      "type": "function"
    },
    {
      "inputs": [
        {
          "internalType": "address",
          "name": "",
          "type": "address"
        }
      ],
      "name": "minters",
      "outputs": [
        {
          "internalType": "bool",
          "name": "",
          "type": "bool"
        }
      ],
      "stateMutability": "view",
      "type": "function"
    },
    {
      "inputs": [],
      "name": "name",
      "outputs": [
        {
          "internalType": "string",
          "name": "",
          "type": "string"
        }
      ],
      "stateMutability": "view",
      "type": "function"
    },
    {
      "inputs": [],
      "name": "owner",
      "outputs": [
        {
          "internalType": "address",
          "name": "",
          "type": "address"
        }
      ],
      "stateMutability": "view",
      "type": "function"
    },
    {
      "inputs": [
        {
          "internalType": "address",
          "name": "account",
          "type": "address"
        }
      ],
      "name": "removeMinter",
      "outputs": [],
      "stateMutability": "nonpayable",
      "type": "function"
    },
    {
      "inputs": [],
      "name": "renounceOwnership",
      "outputs": [],
      "stateMutability": "nonpayable",
      "type": "function"
    },
    {
      "inputs": [],
      "name": "symbol",
      "outputs": [
        {
          "internalType": "string",
          "name": "",
          "type": "string"
        }
      ],
      "stateMutability": "view",
      "type": "function"
    },
    {
      "inputs": [],
      "name": "totalSupply",
      "outputs": [
        {
          "internalType": "uint256",
          "name": "",
          "type": "uint256"
        }
      ],
      "stateMutability": "view",
      "type": "function"
    },
    {
      "inputs": [
        {
          "internalType": "address",
          "name": "to",
          "type": "address"
        },
        {
          "internalType": "uint256",
          "name": "value",
          "type": "uint256"
        }
      ],
      "name": "transfer",
      "outputs": [
        {
          "internalType": "bool",
          "name": "",
          "type": "bool"
        }
      ],
      "stateMutability": "nonpayable",
      "type": "function"
    },
    {
      "inputs": [
        {
          "internalType": "address",
          "name": "from",
          "type": "address"
        },
        {
          "internalType": "address",
          "name": "to",
          "type": "address"
        },
        {
          "internalType": "uint256",
          "name": "value",
          "type": "uint256"
        }
      ],
      "name": "transferFrom",
      "outputs": [
        {
          "internalType": "bool",
          "name": "",
          "type": "bool"
        }
      ],
      "stateMutability": "nonpayable",
      "type": "function"
    },
    {
      "inputs": [
        {
          "internalType": "address",
          "name": "newOwner",
          "type": "address"
        }
      ],
      "name": "transferOwnership",
      "outputs": [],
      "stateMutability": "nonpayable",
      "type": "function"
    }
  ],
  "bytecode": "0x60806040523480156200001157600080fd5b506040516200151b3803806200151b833981016040819052620000349162000386565b3384846003620000458382620004a2565b506004620000548282620004a2565b5050506001600160a01b0381166200008757604051631e4fbdf760e01b8152600060048201526024015b60405180910390fd5b6200009281620000fb565b506005805460ff60a01b1916600160a01b60ff8516021790558015620000d657620000d633620000c484600a62000683565b620000d090846200069b565b6200014d565b5050336000908152600660205260409020805460ff1916600117905550620006cb9050565b600580546001600160a01b038381166001600160a01b0319831681179093556040519116919082907f8be0079c531659141344cd1fd0a4f28419497f9722a3daafe3b4186f6b6457e090600090a35050565b6001600160a01b038216620001795760405163ec442f0560e01b8152600060048201526024016200007e565b62000187600083836200018b565b5050565b6001600160a01b038316620001ba578060026000828254620001ae9190620006b5565b909155506200022e9050565b6001600160a01b038316600090815260208190526040902054818110156200020f5760405163391434e360e21b81526001600160a01b038516600482015260248101829052604481018390526064016200007e565b6001600160a01b03841660009081526020819052604090209082900390555b6001600160a01b0382166200024c576002805482900390556200026b565b6001600160a01b03821660009081526020819052604090208054820190555b816001600160a01b0316836001600160a01b03167fddf252ad1be2c89b69c2b068fc378daa952ba7f163c4a11628f55a4df523b3ef83604051620002b191815260200190565b60405180910390a3505050565b634e487b7160e01b600052604160045260246000fd5b600082601f830112620002e657600080fd5b81516001600160401b0380821115620003035762000303620002be565b604051601f8301601f19908116603f011681019082821181831017156200032e576200032e620002be565b81604052838152602092508660208588010111156200034c57600080fd5b600091505b8382101562000370578582018301518183018401529082019062000351565b6000602085830101528094505050505092915050565b600080600080608085870312156200039d57600080fd5b84516001600160401b0380821115620003b557600080fd5b620003c388838901620002d4565b95506020870151915080821115620003da57600080fd5b50620003e987828801620002d4565b935050604085015160ff811681146200040157600080fd5b6060959095015193969295505050565b600181811c908216806200042657607f821691505b6020821081036200044757634e487b7160e01b600052602260045260246000fd5b50919050565b601f8211156200049d576000816000526020600020601f850160051c81016020861015620004785750805b601f850160051c820191505b81811015620004995782815560010162000484565b5050505b505050565b81516001600160401b03811115620004be57620004be620002be565b620004d681620004cf845462000411565b846200044d565b602080601f8311600181146200050e5760008415620004f55750858301515b600019600386901b1c1916600185901b17855562000499565b600085815260208120601f198616915b828110156200053f578886015182559484019460019091019084016200051e565b50858210156200055e5787850151600019600388901b60f8161c191681555b5050505050600190811b01905550565b634e487b7160e01b600052601160045260246000fd5b600181815b80851115620005c5578160001904821115620005a957620005a96200056e565b80851615620005b757918102915b93841c939080029062000589565b509250929050565b600082620005de575060016200067d565b81620005ed575060006200067d565b8160018114620006065760028114620006115762000631565b60019150506200067d565b60ff8411156200062557620006256200056e565b50506001821b6200067d565b5060208310610133831016604e8410600b841016171562000656575081810a6200067d565b62000662838362000584565b80600019048211156200067957620006796200056e565b0290505b92915050565b60006200069460ff841683620005cd565b9392505050565b80820281158282048414176200067d576200067d6200056e565b808201808211156200067d576200067d6200056e565b610e4080620006db6000396000f3fe608060405234801561001057600080fd5b506004361061012c5760003560e01c8063715018a6116100ad578063983b2d5611610071578063983b2d561461027e578063a9059cbb14610291578063dd62ed3e146102a4578063f2fde38b146102dd578063f46eccc4146102f057600080fd5b8063715018a61461022d57806379cc6790146102355780637ca48513146102485780638da5cb5b1461025b57806395d89b411461027657600080fd5b80633092afd5116100f45780633092afd5146101ac578063313ce567146101bf57806340c10f19146101de57806342966c68146101f157806370a082311461020457600080fd5b806306fdde0314610131578063091273a71461014f578063095ea7b31461016457806318160ddd1461018757806323b872dd14610199575b600080fd5b610139610313565b6040516101469190610b4b565b60405180910390f35b61016261015d366004610be3565b6103a5565b005b610177610172366004610c4b565b6103f9565b6040519015158152602001610146565b6002545b604051908152602001610146565b6101776101a7366004610c75565b610413565b6101626101ba366004610cb1565b610437565b600554600160a01b900460ff1660405160ff9091168152602001610146565b6101626101ec366004610c4b565b610488565b6101626101ff366004610cd3565b610568565b61018b610212366004610cb1565b6001600160a01b031660009081526020819052604090205490565b610162610575565b610162610243366004610c4b565b610589565b610162610256366004610cec565b6105ef565b6005546040516001600160a01b039091168152602001610146565b6101396106ac565b61016261028c366004610cb1565b6106bb565b61017761029f366004610c4b565b61070f565b61018b6102b2366004610d46565b6001600160a01b03918216600090815260016020908152604080832093909416825291909152205490565b6101626102eb366004610cb1565b61071d565b6101776102fe366004610cb1565b60066020526000908152604090205460ff1681565b60606003805461032290610d79565b80601f016020809104026020016040519081016040528092919081815260200182805461034e90610d79565b801561039b5780601f106103705761010080835404028352916020019161039b565b820191906000526020600020905b81548152906001019060200180831161037e57829003601f168201915b5050505050905090565b6103af3384610758565b336001600160a01b03167ffad31924d655455395c87544c8aa1ffdb5a7505a22a3c2e03f28003b6556a75f8484846040516103ec93929190610db3565b60405180910390a2505050565b600033610407818585610792565b60019150505b92915050565b6000336104218582856107a4565b61042c858585610823565b506001949350505050565b61043f610882565b6001600160a01b038116600081815260066020526040808220805460ff19169055517fe94479a9f7e1952cc78f2d6baab678adc1b772d936c6583def489e524cb666929190a250565b3360009081526006602052604090205460ff16806104b057506005546001600160a01b031633145b6104f55760405162461bcd60e51b815260206004820152601160248201527021a6211d103737ba10309036b4b73a32b960791b60448201526064015b60405180910390fd5b6104ff82826108af565b816001600160a01b03167f9d89e36eadf856db0ad9ffb5a569e07f95634dddd9501141ecf04820484ad0dc8260405161055c918152604060208201819052600a90820152696c6f616e5f697373756560b01b606082015260800190565b60405180910390a25050565b6105723382610758565b50565b61057d610882565b61058760006108e5565b565b6105938282610937565b816001600160a01b03167ffad31924d655455395c87544c8aa1ffdb5a7505a22a3c2e03f28003b6556a75f8260405161055c918152604060208201819052600990820152686275726e5f66726f6d60b81b606082015260800190565b3360009081526006602052604090205460ff168061061757506005546001600160a01b031633145b6106575760405162461bcd60e51b815260206004820152601160248201527021a6211d103737ba10309036b4b73a32b960791b60448201526064016104ec565b61066184846108af565b836001600160a01b03167f9d89e36eadf856db0ad9ffb5a569e07f95634dddd9501141ecf04820484ad0dc84848460405161069e93929190610db3565b60405180910390a250505050565b60606004805461032290610d79565b6106c3610882565b6001600160a01b038116600081815260066020526040808220805460ff19166001179055517f6ae172837ea30b801fbfcdd4108aa1d5bf8ff775444fd70256b44e6bf3dfc3f69190a250565b600033610407818585610823565b610725610882565b6001600160a01b03811661074f57604051631e4fbdf760e01b8152600060048201526024016104ec565b610572816108e5565b6001600160a01b03821661078257604051634b637e8f60e11b8152600060048201526024016104ec565b61078e8260008361094c565b5050565b61079f8383836001610a76565b505050565b6001600160a01b0383811660009081526001602090815260408083209386168352929052205460001981101561081d578181101561080e57604051637dc7a0d960e11b81526001600160a01b038416600482015260248101829052604481018390526064016104ec565b61081d84848484036000610a76565b50505050565b6001600160a01b03831661084d57604051634b637e8f60e11b8152600060048201526024016104ec565b6001600160a01b0382166108775760405163ec442f0560e01b8152600060048201526024016104ec565b61079f83838361094c565b6005546001600160a01b031633146105875760405163118cdaa760e01b81523360048201526024016104ec565b6001600160a01b0382166108d95760405163ec442f0560e01b8152600060048201526024016104ec565b61078e6000838361094c565b600580546001600160a01b038381166001600160a01b0319831681179093556040519116919082907f8be0079c531659141344cd1fd0a4f28419497f9722a3daafe3b4186f6b6457e090600090a35050565b6109428233836107a4565b61078e8282610758565b6001600160a01b03831661097757806002600082825461096c9190610de9565b909155506109e99050565b6001600160a01b038316600090815260208190526040902054818110156109ca5760405163391434e360e21b81526001600160a01b038516600482015260248101829052604481018390526064016104ec565b6001600160a01b03841660009081526020819052604090209082900390555b6001600160a01b038216610a0557600280548290039055610a24565b6001600160a01b03821660009081526020819052604090208054820190555b816001600160a01b0316836001600160a01b03167fddf252ad1be2c89b69c2b068fc378daa952ba7f163c4a11628f55a4df523b3ef83604051610a6991815260200190565b60405180910390a3505050565b6001600160a01b038416610aa05760405163e602df0560e01b8152600060048201526024016104ec565b6001600160a01b038316610aca57604051634a1406b160e11b8152600060048201526024016104ec565b6001600160a01b038085166000908152600160209081526040808320938716835292905220829055801561081d57826001600160a01b0316846001600160a01b03167f8c5be1e5ebec7d5bd14f71427d1e84f3dd0314c0f7b2291e5b200ac8c7c3b92584604051610b3d91815260200190565b60405180910390a350505050565b60006020808352835180602085015260005b81811015610b7957858101830151858201604001528201610b5d565b506000604082860101526040601f19601f8301168501019250505092915050565b60008083601f840112610bac57600080fd5b50813567ffffffffffffffff811115610bc457600080fd5b602083019150836020828501011115610bdc57600080fd5b9250929050565b600080600060408486031215610bf857600080fd5b83359250602084013567ffffffffffffffff811115610c1657600080fd5b610c2286828701610b9a565b9497909650939450505050565b80356001600160a01b0381168114610c4657600080fd5b919050565b60008060408385031215610c5e57600080fd5b610c6783610c2f565b946020939093013593505050565b600080600060608486031215610c8a57600080fd5b610c9384610c2f565b9250610ca160208501610c2f565b9150604084013590509250925092565b600060208284031215610cc357600080fd5b610ccc82610c2f565b9392505050565b600060208284031215610ce557600080fd5b5035919050565b60008060008060608587031215610d0257600080fd5b610d0b85610c2f565b935060208501359250604085013567ffffffffffffffff811115610d2e57600080fd5b610d3a87828801610b9a565b95989497509550505050565b60008060408385031215610d5957600080fd5b610d6283610c2f565b9150610d7060208401610c2f565b90509250929050565b600181811c90821680610d8d57607f821691505b602082108103610dad57634e487b7160e01b600052602260045260246000fd5b50919050565b83815260406020820152816040820152818360608301376000818301606090810191909152601f909201601f1916010192915050565b8082018082111561040d57634e487b7160e01b600052601160045260246000fdfea2646970667358221220423f8466bbaf8f4f4c18876285f9a116e1cbe7ee527437e8b735c7f61de4934b64736f6c63430008180033",
  "linkReferences": {},
  "deployedLinkReferences": {}
}